:020000040800F2
:100000000050002025090008550800085D08000878
:10001000650800086D080008750800080000000069
:100020000000000000000000000000007D08000843
:10003000890800080000000095080008A1080008D1
:100040006D0900086D0900086D0900086D090008B8
:100050006D0900086D0900086D0900086D090008A8
:100060006D0900086D0900086D0900086D09000898
:100070006D0900086D0900086D0900086D09000888
:100080006D0900086D0900086D0900086D09000878
:100090006D0900086D0900086D0900086D09000868
:1000A0006D0900086D0900086D0900086D09000858
:1000B0006D0900086D0900086D0900086D09000848
:1000C0006D0900086D0900086D0900086D09000838
:1000D0006D0900086D0900086D0900086D09000828
:1000E0006D0900086D0900086D0900080000000096
:1000F0000000000000000000000000000000000000
:0C01000000000000000000005FF808F1A3
:10010C0010B5054C237833B9044B13B10448AFF345
:10011C0000800123237010BD74000020000000003B
:10012C00C848000808B5034B1BB103490348AFF39B
:10013C00008008BD0000000078000020C8480008BE
:10014C00B0B590B002AF00237B6300F00BFC00F065
:10015C0007F900F0CFF900F0A3F900F03DF900F039
:10016C0069F9714B07F10C041D460FCD0FC495E8CE
:10017C00070084E807006D4803F0EAFC03F023FB5A
:10018C0003F00AFB0021082003F080FE1D2003F081
:10019C00EFFD022003F0FEFD4FF4FD6003F00CFEBA
:1001AC00042003F0D3FD172003F030FE3B2003F0B6
:1001BC0042FE1E2003F051FE002200215C4803F099
:1001CC00C1FB002201215B4803F0BCFB01224FF470
:1001DC008061594800F0B4FE642000F025FC03F067
:1001EC00DBFA03F015FA03F01BFA03F0FCF94FF4F9
:1001FC007A7000F019FC372003F0A4F9034687F855
:10020C00333097F833301A464C494D4803F0A6FE6C
:10021C0097F83330912B03D097F83330922B09D1C8
:10022C0000220021464803F08DFB002201214548A5
:10023C0003F088FB4FF47A7000F0F6FB03F0ACFA95
:10024C0003F010FD034687F8323003F017FD034628
:10025C0087F8313003F01EFD0346FB8503F0F6FCF6
:10026C00034687F82D3003F036FD034687F82C3013
:10027C0003F040FD034687F82B3003F047FD03469F
:10028C0087F82A3003F051FD034687F8293003F034
:10029C0055FD034687F8283097F82C2097F82B103B
:1002AC0097F82A3000930B462749284803F056FE4E
:1002BC0097F82D309B0038333B4453F82C1C97F89F
:1002CC00320097F83130FA8D0192009303460A46BA
:1002DC001F491B4803F042FE002200211B4803F07B
:1002EC0031FB00220121164803F02CFB03F0CCFB60
:1002FC000346DAB2174B1A70164B1B781A4616497E
:10030C00124803F02BFE134B1B78002B98D00A22BB
:10031C0000210E4803F016FB0E4B1B7802220F49EE
:10032C00184603F0EFFB8BE7BC490008B80000202F
:10033C003449000840490008000C014054490008A9
:10034C00A40000205C4900086C49000890000020C3
:10035C007C490008AC0100208C49000800000020FA
:10036C0080B590B000AF07F1180328220021184681
:10037C0003F016FE3B1D00221A605A609A60DA6088
:10038C001A610223BB610123BB621023FB620023B1
:10039C007B6307F11803184601F01EFE0346002B81
:1003AC0001D000F043F90F237B600023BB600023D6
:1003BC00FB6000233B6100237B613B1D0021184641
:1003CC0002F08CF80346002B01D000F02FF900BF8F
:1003DC004037BD4680BD000080B500AF124B134ABC
:1003EC001A60114B124A5A600F4B00229A600E4B46
:1003FC000022DA600C4B4FF480421A610A4B002247
:10040C005A61094B00229A61074B0022DA61064BB4
:10041C0000221A62044800F0ABFD0346002B01D009
:10042C0000F004F900BF80BDB8000020005400406B
:10043C00A086010080B500AF174B184A1A60164B06
:10044C004FF482725A60144B00229A60124B0022B5
:10045C00DA60114B00221A610F4B00225A610E4BCD
:10046C004FF400729A610C4B1022DA610A4B002295
:10047C001A62094B00225A62074B00229A62064B01
:10048C000A22DA62044802F0B7F90346002B01D0C5
:10049C0000F0CCF800BF80BD0C01002000380040FB
:1004AC0080B500AF114B124A1A60104B4FF4E13279
:1004BC005A600E4B00229A600C4B0022DA600B4BF8
:1004CC0000221A61094B0C225A61084B00229A61D6
:1004DC00064B0022DA61054802F023FF0346002B8D
:1004EC0001D000F0A3F800BF80BD00BF6401002064
:1004FC000038014080B588B000AF07F1100300222E
:10050C001A605A609A60DA60444B9B69434A43F024
:10051C0010039361414B9B6903F01003FB60FB6874
:10052C003E4B9B693D4A43F0200393613B4B9B69D7
:10053C0003F02003BB60BB68384B9B69374A43F020
:10054C0004039361354B9B6903F004037B607B6868
:10055C00324B9B69314A43F0080393612F4B9B69E3
:10056C0003F008033B603B6800224FF400512C4819
:10057C0000F0E6FC002280212A4800F0E1FC002279
:10058C0040F20341284800F0DBFC4FF400533B6180
:10059C0001237B610023BB610223FB6107F1100384
:1005AC0019461F4800F048FB79233B6100237B610F
:1005BC000123BB6107F1100319461A4800F03CFBFC
:1005CC0080233B6101237B610023BB610223FB6120
:1005DC0007F110031946134800F02EFB40F20343B9
:1005EC003B6101237B610023BB610223FB6107F1AB
:1005FC00100319460C4800F01FFB4FF400633B61DD
:10060C0000237B610123BB6107F1100319460648E7
:10061C0000F012FB00BF2037BD4680BD0010024029
:10062C000010014000080140000C014080B400AFF4
:10063C0072B600BF00BFFDE780B485B000AF154BAC
:10064C009B69144A43F001039361124B9B6903F0BD
:10065C000103BB60BB680F4BDB690E4A43F0805350
:10066C00D3610C4BDB6903F080537B607B680A4BD6
:10067C005B68FB60FB6823F0E063FB60FB6843F0A6
:10068C000073FB60044AFB68536000BF1437BD461F
:10069C0080BC7047001002400000014080B588B05B
:1006AC0000AF786007F1100300221A605A609A605C
:1006BC00DA607B681B68154A934223D1144B9B6903
:1006CC00134A43F008039361114B9B6903F0080331
:1006DC00FB60FB68C0233B6112237B610323FB613E
:1006EC0007F1100319460B4800F0A6FA084BDB691A
:1006FC00074A43F40013D361054BDB6903F4001381
:10070C00BB60BB6800BF2037BD4680BD00540040B5
:10071C0000100240000C014080B588B000AF78603A
:10072C0007F1100300221A605A609A60DA607B6845
:10073C001B681C4A934231D11B4BDB691A4A43F4A8
:10074C008043D361184BDB6903F48043FB60FB6887
:10075C00154B9B69144A43F008039361124B9B6938
:10076C0003F00803BB60BB684FF420433B610223DA
:10077C007B610323FB6107F1100319460B4800F062
:10078C005BFA4FF480433B6100237B610023BB6128
:10079C0007F110031946054800F04EFA00BF203748
:1007AC00BD4680BD0038004000100240000C0140E6
:1007BC0080B588B000AF786007F1100300221A6092
:1007CC005A609A60DA607B681B681C4A934231D18C
:1007DC001B4B9B691A4A43F480439361184B9B69EA
:1007EC0003F48043FB60FB68154B9B69144A43F090
:1007FC0004039361124B9B6903F00403BB60BB6859
:10080C004FF400733B6102237B610323FB6107F10F
:10081C00100319460B4800F00FFA4FF480633B614C
:10082C0000237B610023BB6107F1100319460548C7
:10083C0000F002FA00BF2037BD4680BD00380140F1
:10084C00001002400008014080B400AF00BFFDE77B
:10085C0080B400AF00BFFDE780B400AF00BFFDE780
:10086C0080B400AF00BFFDE780B400AF00BFFDE770
:10087C0080B400AF00BFBD4680BC704780B400AFF1
:10088C0000BFBD4680BC704780B400AF00BFBD4602
:10089C0080BC704780B500AF00F0AAF800BF80BDE7
:1008AC0080B586B000AF7860144A154BD31A7B61C3
:1008BC007B693B61134B1B68002B02D1114B124A15
:1008CC001A60104B1A687B6813443A699A4207D233
:1008DC0003F06EFB03460C221A604FF0FF3309E065
:1008EC00084B1B68FB60074B1A687B681344054A6E
:1008FC001360FB6818461837BD4680BD00500020B9
:10090C0000040000B00100200803002080B400AFF8
:10091C0000BFBD4680BC7047FFF7F8FF0B480C4981
:10092C000C4A002302E0D458C4500433C4188C423F
:10093C00F9D3094A094C002301E013600432A242A6
:10094C00FBD303F03BFBFFF7FBFB704700000020E1
:10095C0074000020904A0008740000200803002056
:10096C00FEE7000080B500AF084B1B68074A43F058
:10097C0010031360032000F02BF90F2000F008F88F
:10098C00FFF75AFE0023184680BD00BF002002402E
:10099C0080B582B000AF7860124B1A68124B1B788E
:1009AC0019464FF47A73B3FBF1F3B2FBF3F3184629
:1009BC0000F035F90346002B01D001230EE07B68D3
:1009CC000F2B0AD8002279684FF0FF3000F00BF99A
:1009DC00064A7B681360002300E0012318460837A1
:1009EC00BD4680BD040000200C0000200800002043
:1009FC0080B400AF054B1B781A46054B1B6813449B
:100A0C00034A136000BFBD4680BC70470C00002039
:100A1C00B401002080B400AF024B1B681846BD46E1
:100A2C0080BC7047B401002080B584B000AF786002
:100A3C00FFF7F0FFB8607B68FB60FB68B3F1FF3F2A
:100A4C0005D00A4B1B781A46FB681344FB6000BFA9
:100A5C00FFF7E0FF0246BB68D31AFA689A42F7D850
:100A6C0000BF00BF1037BD4680BD00BF0C0000208A
:100A7C0080B485B000AF78607B6803F00703FB603F
:100A8C000C4BDB68BB60BA684FF6FF031340BB60CE
:100A9C00FB681A02BB68134343F0BF6343F4003393
:100AAC00BB60044ABB68D36000BF1437BD4680BC32
:100ABC00704700BF00ED00E080B400AF044BDB6872
:100ACC001B0A03F007031846BD4680BC704700BFE5
:100ADC0000ED00E080B483B000AF03463960FB71D9
:100AEC0097F90730002B0ADB3B68DAB20C4997F90F
:100AFC0007301201D2B20B4483F800230AE03B68A2
:100B0C00DAB20849FB7903F00F03043B1201D2B2AD
:100B1C000B441A7600BF0C37BD4680BC704700BF33
:100B2C0000E100E000ED00E080B489B000AFF860B7
:100B3C00B9607A60FB6803F00703FB61FB69C3F1E2
:100B4C000703042B28BF0423BB61FB690433062B6A
:100B5C0002D9FB69033B00E000237B614FF0FF32BD
:100B6C00BB6902FA03F3DA43BB681A407B699A400B
:100B7C004FF0FF317B6901FA03F3D9437B680B40DB
:100B8C00134318462437BD4680BC704780B582B0ED
:100B9C0000AF78607B68013BB3F1807F01D3012308
:100BAC000FE00A4A7B68013B53600F214FF0FF3086
:100BBC00FFF790FF054B00229A60044B07221A6046
:100BCC00002318460837BD4680BD00BF10E000E08A
:100BDC0080B582B000AF78607868FFF749FF00BF3E
:100BEC000837BD4680BD80B586B000AF0346B960FE
:100BFC007A60FB7300237B61FFF75EFF78617A6894
:100C0C00B9687869FFF790FF024697F90F301146E3
:100C1C001846FFF75FFF00BF1837BD4680BD80B593
:100C2C0082B000AF78607868FFF7B0FF03461846D3
:100C3C000837BD4680BD000080B48BB000AF786033
:100C4C00396000237B6200233B6269E101227B6AED
:100C5C0002FA03F3FB613B681B68FA691340BB6142
:100C6C00BA69FB699A4240F058813B685B689A4AC2
:100C7C0093425ED0984A934275D8984A934258D082
:100C8C00964A93426FD8964A934252D0944A9342D2
:100C9C0069D8944A93424CD0924A934263D8924A70
:100CAC00934246D0904A93425DD8122B2AD8122BED
:100CBC0059D801A252F823F03F0D0008190D000875
:100CCC002B0D00086D0D0008730D0008730D000846
:100CDC00730D0008730D0008730D0008730D0008E8
:100CEC00730D0008730D0008730D0008730D0008D8
:100CFC00730D0008730D0008730D0008210D00081A
:100D0C00350D0008794A934213D02CE03B68DB6820
:100D1C003B6229E03B68DB6804333B6224E03B68C0
:100D2C00DB6808333B621FE03B68DB680C333B62DB
:100D3C001AE03B689B68002B02D104233B6213E052
:100D4C003B689B68012B05D108233B627B68FA69E1
:100D5C001A6109E008233B627B68FA695A6103E077
:100D6C0000233B6200E000BFBB69FF2B01D87B680E
:100D7C0001E07B6804337B61BB69FF2B02D87B6A83
:100D8C009B0002E07B6A083B9B003B617B691A6815
:100D9C000F213B6901FA03F3DB431A40396A3B69C3
:100DAC0001FA03F31A437B691A603B685B6803F032
:100DBC008053002B00F0B1804D4B9B694C4A43F0A3
:100DCC00010393614A4B9B6903F00103BB60BB6851
:100DDC00484A7B6A9B08023352F82330FB607B6ADB
:100DEC0003F003039B000F2202FA03F3DB43FA68C0
:100DFC001340FB607B68404A934213D07B683F4AA8
:100E0C0093420DD07B683E4A934207D07B683D4AA3
:100E1C00934201D1032306E0042304E0022302E001
:100E2C00012300E000237A6A02F00302920093404F
:100E3C00FA681343FB602F497B6A9B080233FA68FC
:100E4C0041F823203B685B6803F48013002B06D029
:100E5C002D4B9A682C49BB6913438B6006E02A4BD7
:100E6C009A68BB69DB43284913408B603B685B681D
:100E7C0003F40013002B06D0234BDA682249BB691C
:100E8C001343CB6006E0204BDA68BB69DB431E4999
:100E9C001340CB603B685B6803F40033002B06D037
:100EAC00194B5A681849BB6913434B6006E0164B43
:100EBC005A68BB69DB43144913404B603B685B6861
:100ECC0003F48033002B21D00F4B1A680E49BB69F9
:100EDC0013430B6021E000BF000032100000311002
:100EEC000000221000002110000012100000111050
:100EFC00001002400000014000080140000C0140BD
:100F0C000010014000140140000401400B4B1A6812
:100F1C00BB69DB43094913400B607B6A01337B627D
:100F2C003B681A687B6A22FA03F3002B7FF48EAEBF
:100F3C0000BF00BF2C37BD4680BC70470004014089
:100F4C0080B483B000AF78600B467B8013467B7017
:100F5C007B78002B03D07A887B681A6103E07B884E
:100F6C001A047B681A6100BF0C37BD4680BC704701
:100F7C0080B584B000AF78607B68002B01D1012371
:100F8C002BE17B6893F83D30DBB2002B06D17B68FC
:100F9C00002283F83C207868FFF780FB7B682422D2
:100FAC0083F83D207B681B681A687B681B6822F0FD
:100FBC0001021A607B681B681A687B681B6842F424
:100FCC0000421A607B681B681A687B681B6822F4F5
:100FDC0000421A6001F0CAFBF8607B685B68814ACA
:100FEC00934207D8FB68804A934294BF01230023A5
:100FFC00DBB206E0FB687D4A934294BF01230023D9
:10100C00DBB2002B01D00123E7E0FB68784AA2FB9E
:10101C0003239B0CBB607B681B685B6823F03F0160
:10102C007B681B68BA680A435A607B681B681B6A3A
:10103C0023F03F017B685B686A4A934202D8BB6825
:10104C00013309E0BB684FF4967202FB03F3694A63
:10105C00A2FB03239B0901337A6812680B431362CA
:10106C007B681B68DB6923F44F4222F0FF027B682C
:10107C005B685C498B4219D8FB68591E7B685B68BE
:10108C005B00B1FBF3F3591C40F6FC730B40002BD7
:10109C000AD0FB68591E7B685B685B00B1FBF3F3FD
:1010AC000133C3F30B0351E004234FE07B689B68CF
:1010BC00002B11D1FB68581E7B6859680B465B00EE
:1010CC000B44B0FBF3F30133C3F30B03002B0CBF46
:1010DC0001230023DBB212E0FB68581E7B685968C1
:1010EC000B469B000B4499000B44B0FBF3F301330C
:1010FC00C3F30B03002B0CBF01230023DBB2002B2B
:10110C0001D0012322E07B689B68002B0ED1FB6889
:10111C00581E7B6859680B465B000B44B0FBF3F31D
:10112C000133C3F30B0343F400430FE0FB68581E79
:10113C007B6859680B469B000B4499000B44B0FB31
:10114C00F3F30133C3F30B0343F4404379680968A9
:10115C001343CB617B681B681B6823F0C0017B6861
:10116C00DA697B681B6A1A437B681B680A431A603E
:10117C007B681B689B6823F4034323F0FF037A68A6
:10118C0011697A68D26811437A6812680B439360CC
:10119C007B681B68DB6823F0FF017B685A697B68FE
:1011AC009B691A437B681B680A43DA607B681B687F
:1011BC001A687B681B6842F001021A607B68002287
:1011CC001A647B68202283F83D207B6800221A6316
:1011DC007B68002283F83E20002318461037BD465A
:1011EC0080BD00BFA08601007F841E00FF083D006B
:1011FC0083DE1B43D34D621080B588B002AFF8601C
:10120C007A601A460B467B8113463B81FFF702FC42
:10121C007861FB6893F83D30DBB2202B40F0E08026
:10122C007B690093192301227049F86800F09EFC39
:10123C000346002B01D00223D3E0FB6893F83C302B
:10124C00012B01D10223CCE0FB68012283F83C2066
:10125C00FB681B681B6803F00103012B07D0FB68BC
:10126C001B681A68FB681B6842F001021A60FB6875
:10127C001B681A68FB681B6822F400621A60FB6822
:10128C00212283F83D20FB68102283F83E20FB6866
:10129C0000221A64FB687A685A62FB683A895A859C
:1012AC00FB685B8D9AB2FB681A85FB68504ADA6260
:1012BC0079897B693A6AF86800F008FB0346002BD1
:1012CC0001D001238DE000233B61FB681B685B6947
:1012DC003B61FB681B689B693B613B6966E07A6913
:1012EC00396AF86800F05CFD0346002B0DD0FB68F2
:1012FC001B6C042B07D1FB681B681A68FB681B6806
:10130C0042F400721A6001236BE0FB685B6A1A7886
:10131C00FB681B681A61FB685B6A5A1CFB685A62A3
:10132C00FB685B8D9BB2013B9AB2FB685A85FB68EC
:10133C001B8D013B9AB2FB681A85FB681B685B69C5
:10134C0003F00403042B1BD1FB681B8D002B17D05F
:10135C00FB685B6A1A78FB681B681A61FB685B6A3E
:10136C005A1CFB685A62FB685B8D9BB2013B9AB2BC
:10137C00FB685A85FB681B8D013B9AB2FB681A858A
:10138C007A69396AF86800F053FD0346002B0DD0DA
:10139C00FB681B6C042B07D1FB681B681A68FB6885
:1013AC001B6842F400721A6001231AE0FB681B8D63
:1013BC00002B94D1FB681B681A68FB681B6842F40D
:1013CC0000721A60FB68202283F83D20FB68002223
:1013DC0083F83E20FB68002283F83C20002300E0C9
:1013EC00022318461837BD4680BD00BF020010000E
:1013FC000000FFFF80B58CB002AFF8607A601A462F
:10140C000B467B8113463B8100233B62FFF702FBBB
:10141C007862FB6893F83D30DBB2202B40F04B82B6
:10142C007B6A0093192301227F49F86800F09EFB28
:10143C000346002B01D002233EE2FB6893F83C30BC
:10144C00012B01D1022337E2FB68012283F83C20F7
:10145C00FB681B681B6803F00103012B07D0FB68BA
:10146C001B681A68FB681B6842F001021A60FB6873
:10147C001B681A68FB681B6822F400621A60FB6820
:10148C00222283F83D20FB68102283F83E20FB6863
:10149C0000221A64FB687A685A62FB683A895A859A
:1014AC00FB685B8D9AB2FB681A85FB685F4ADA624F
:1014BC0079897B6A3A6BF86800F08AFA0346002B4C
:1014CC0001D00123F8E1FB681B8D002B13D1002305
:1014DC00FB61FB681B685B69FB61FB681B689B69B4
:1014EC00FB61FB69FB681B681A68FB681B6842F4AC
:1014FC0000721A60CCE1FB681B8D012B1ED1FB68BE
:10150C001B681A68FB681B6822F480621A6072B64A
:10151C0000BF0023BB61FB681B685B69BB61FB6898
:10152C001B689B69BB61BB69FB681B681A68FB681D
:10153C001B6842F400721A6062B635E0FB681B8DC2
:10154C00022B1ED1FB681B681A68FB681B6842F4EF
:10155C0000621A6072B600BF00237B61FB681B68D7
:10156C005B697B61FB681B689B697B617B69FB68C2
:10157C001B681A68FB681B6822F480621A6062B6EA
:10158C0012E0FB681B681A68FB681B6842F48062F7
:10159C001A6000233B61FB681B685B693B61FB685D
:1015AC001B689B693B613B6972E1FB681B8D032BDC
:1015BC0000F21F81FB681B8D012B23D17A6A396BDA
:1015CC00F86800F07DFC0346002B01D0012373E189
:1015DC00FB681B681A69FB685B6AD2B21A70FB68FD
:1015EC005B6A5A1CFB685A62FB681B8D013B9AB202
:1015FC00FB681A85FB685B8D9BB2013B9AB2FB685A
:10160C005A8545E1FB681B8D022B52D17B6A0093F6
:10161C003B6B00220649F86800F0A8FA0346002B41
:10162C0008D0012348E100BF020010000000FFFFBA
:10163C000400010072B600BFFB681B681A68FB68E7
:10164C001B6842F400721A60FB681B681A69FB681D
:10165C005B6AD2B21A70FB685B6A5A1CFB685A62EE
:10166C00FB681B8D013B9AB2FB681A85FB685B8D8E
:10167C009BB2013B9AB2FB685A8562B600BFFB680D
:10168C001B681A69FB685B6AD2B21A70FB685B6AEA
:10169C005A1CFB685A62FB681B8D013B9AB2FB68B3
:1016AC001A85FB685B8D9BB2013B9AB2FB685A852D
:1016BC00EEE07B6A00933B6B00228149F86800F0F6
:1016CC0055FA0346002B01D00123F5E0FB681B689B
:1016DC001A68FB681B6822F480621A6072B600BF3D
:1016EC00FB681B681A69FB685B6AD2B21A70FB68EC
:1016FC005B6A5A1CFB685A62FB681B8D013B9AB2F1
:10170C00FB681A85FB685B8D9BB2013B9AB2FB6848
:10171C005A856C4B1B68DB086B4AA2FB03231A0A25
:10172C0013469B001344DA00D31A3B623B6A013B1D
:10173C003B623B6A002B18D1FB6800221A63FB68E2
:10174C00202283F83D20FB68002283F83E20FB68B2
:10175C001B6C43F02002FB681A6462B600BFFB6886
:10176C00002283F83C200123A6E0FB681B685B6920
:10177C0003F00403042BD9D1FB681B681A68FB68BF
:10178C001B6842F400721A60FB681B681A69FB68DC
:10179C005B6AD2B21A70FB685B6A5A1CFB685A62AD
:1017AC00FB681B8D013B9AB2FB681A85FB685B8D4D
:1017BC009BB2013B9AB2FB685A8562B600BFFB68CC
:1017CC001B681A69FB685B6AD2B21A70FB685B6AA9
:1017DC005A1CFB685A62FB681B8D013B9AB2FB6872
:1017EC001A85FB685B8D9BB2013B9AB2FB685A85EC
:1017FC004EE07A6A396BF86800F062FB0346002B06
:10180C0001D0012358E0FB681B681A69FB685B6A0E
:10181C00D2B21A70FB685B6A5A1CFB685A62FB688E
:10182C001B8D013B9AB2FB681A85FB685B8D9BB2E2
:10183C00013B9AB2FB685A85FB681B685B6903F035
:10184C000403042B24D1FB681B8D032B07D1FB68ED
:10185C001B681A68FB681B6822F480621A60FB68BC
:10186C001B681A69FB685B6AD2B21A70FB685B6A08
:10187C005A1CFB685A62FB681B8D013B9AB2FB68D1
:10188C001A85FB685B8D9BB2013B9AB2FB685A854B
:10189C00FB681B8D002B7FF488AEFB68202283F83D
:1018AC003D20FB68002283F83E20FB68002283F871
:1018BC003C20002300E0022318462837BD4680BD9B
:1018CC00040001000400002089B5F81480B588B02C
:1018DC0002AFF8607A603B600B467B81FB68DB6A89
:1018EC007B617B69082B06D07B69012B03D07B695C
:1018FC0013F5803F08D1FB681B681A68FB681B68EE
:10190C0042F480721A600BE0FB681B6B122B07D140
:10191C00FB681B681A68FB681B6842F480721A60CB
:10192C003B6800937B6800224FF00111F86800F0CF
:10193C001DF90346002B0DD0FB681B681B6803F4D4
:10194C008073B3F5807F03D1FB684FF400721A6487
:10195C00032335E0FB681B69B3F5804F08D17B8905
:10196C00DBB21A46FB681B6802F0FE021A611BE030
:10197C007B89DB11DBB203F00603DBB263F00F03F0
:10198C00DAB2FB681B681A613B687A680E49F86822
:10199C0000F066F90346002B01D0012310E07B898F
:1019AC00DAB2FB681B681A613B687A680749F86809
:1019BC0000F056F90346002B01D0012300E0002370
:1019CC0018461837BD4680BD080001000200010012
:1019DC0080B588B002AFF8607A603B600B467B81C3
:1019EC00FB68DB6A7B61FB681B681A68FB681B6819
:1019FC0042F480621A607B69082B06D07B69012B4C
:101A0C0003D07B6913F5803F08D1FB681B681A680B
:101A1C00FB681B6842F480721A600BE0FB681B6B5E
:101A2C00112B07D1FB681B681A68FB681B6842F412
:101A3C0080721A603B6800937B6800224FF00111A2
:101A4C00F86800F093F80346002B0DD0FB681B6878
:101A5C001B6803F48073B3F5807F03D1FB684FF4EC
:101A6C0000721A64032379E0FB681B69B3F5804F9D
:101A7C0008D17B89DBB243F00103DAB2FB681B6847
:101A8C001A615FE07B89DB11DBB203F00603DBB28A
:101A9C0063F00F03DAB2FB681B681A613B687A6863
:101AAC003049F86800F0DCF80346002B01D0012324
:101ABC0054E07B89DAB2FB681B681A613B687A6870
:101ACC002949F86800F0CCF80346002B01D001231B
:101ADC0044E000233B61FB681B685B693B61FB686E
:101AEC001B689B693B613B69FB681B681A68FB6858
:101AFC001B6842F480721A603B6800937B6800227A
:101B0C004FF00111F86800F031F80346002B0DD0AE
:101B1C00FB681B681B6803F48073B3F5807F03D1EB
:101B2C00FB684FF400721A64032317E07B89DB1106
:101B3C00DBB203F00603DBB263F00E03DAB2FB6830
:101B4C001B681A613B687A680749F86800F088F8E6
:101B5C000346002B01D0012300E000231846183760
:101B6C00BD4680BD080001000200010080B584B0B4
:101B7C0000AFF860B9603B601346FB7148E03B680E
:101B8C00B3F1FF3F44D0FEF745FF0246BB69D31AC1
:101B9C003A689A4202D33B68002B39D1BB681B0CC4
:101BAC00DBB2012B0DD1FB681B685B69DA43BB68A8
:101BBC0013409BB2002B0CBF01230023DBB21A464F
:101BCC000CE0FB681B689B69DA43BB6813409BB253
:101BDC00002B0CBF01230023DBB21A46FB799A427F
:101BEC0016D1FB6800221A63FB68202283F83D2083
:101BFC00FB68002283F83E20FB681B6C43F020023C
:101C0C00FB681A64FB68002283F83C20012323E064
:101C1C00BB681B0CDBB2012B0DD1FB681B685B692D
:101C2C00DA43BB6813409BB2002B0CBF012300238B
:101C3C00DBB21A460CE0FB681B689B69DA43BB6895
:101C4C0013409BB2002B0CBF01230023DBB21A46BE
:101C5C00FB799A4293D0002318461037BD4680BDBD
:101C6C0080B584B000AFF860B9607A603B6071E019
:101C7C00FB681B685B6903F48063B3F5806F23D149
:101C8C00FB681B681A68FB681B6842F400721A60D8
:101C9C00FB681B686FF480625A61FB6800221A6350
:101CAC00FB68202283F83D20FB68002283F83E204D
:101CBC00FB681B6C43F00402FB681A64FB6800228F
:101CCC0083F83C20012367E07B68B3F1FF3F41D0F0
:101CDC00FEF7A0FE02463B68D31A7A689A4202D3FA
:101CEC007B68002B36D1BB681B0CDBB2012B0CD1F3
:101CFC00FB681B685B69DA43BB6813409BB2002B23
:101D0C0014BF01230023DBB20BE0FB681B689B694B
:101D1C00DA43BB6813409BB2002B14BF0123002392
:101D2C00DBB2002B16D0FB6800221A63FB68202262
:101D3C0083F83D20FB68002283F83E20FB681B6C77
:101D4C0043F02002FB681A64FB68002283F83C20F5
:101D5C00012321E0BB681B0CDBB2012B0CD1FB680F
:101D6C001B685B69DA43BB6813409BB2002B14BF42
:101D7C0001230023DBB20BE0FB681B689B69DA4391
:101D8C00BB6813409BB2002B14BF01230023DBB2B2
:101D9C00002B7FF46DAF002318461037BD4680BD75
:101DAC0080B584B000AFF860B9607A6034E0F86850
:101DBC0000F0E3F80346002B01D0012334E0BB68AC
:101DCC00B3F1FF3F28D0FEF725FE02467B68D31AFD
:101DDC00BA689A4202D3BB68002B1DD1FB681B6802
:101DEC005B6903F08003802B16D0FB6800221A631A
:101DFC00FB68202283F83D20FB68002283F83E20FC
:101E0C00FB681B6C43F02002FB681A64FB68002221
:101E1C0083F83C20012307E0FB681B685B6903F037
:101E2C008003802BC3D1002318461037BD4680BDDC
:101E3C0080B584B000AFF860B9607A6034E0F868BF
:101E4C0000F09BF80346002B01D0012334E0BB6863
:101E5C00B3F1FF3F28D0FEF7DDFD02467B68D31AB5
:101E6C00BA689A4202D3BB68002B1DD1FB681B6871
:101E7C005B6903F00403042B16D0FB6800221A6381
:101E8C00FB68202283F83D20FB68002283F83E206B
:101E9C00FB681B6C43F02002FB681A64FB68002291
:101EAC0083F83C20012307E0FB681B685B6903F0A7
:101EBC000403042BC3D1002318461037BD4680BD44
:101ECC0080B584B000AFF860B9607A6049E0FB6817
:101EDC001B685B6903F01003102B19D1FB681B689E
:101EEC006FF010025A61FB6800221A63FB68202213
:101EFC0083F83D20FB68002283F83E20FB681A6CB7
:101F0C00FB681A64FB68002283F83C20012330E054
:101F1C00FEF780FD02467B68D31ABA689A4202D358
:101F2C00BB68002B1DD1FB681B685B6903F0400389
:101F3C00402B16D0FB6800221A63FB68202283F822
:101F4C003D20FB68002283F83E20FB681B6C43F0AD
:101F5C002002FB681A64FB68002283F83C200123F2
:101F6C0007E0FB681B685B6903F04003402BAED1B4
:101F7C00002318461037BD4680BD80B483B000AF37
:101F8C0078607B681B685B6903F48063B3F5806FD2
:101F9C001BD17B681B686FF480625A617B680022DE
:101FAC001A637B68202283F83D207B68002283F82B
:101FBC003E207B681B6C43F004027B681A647B68D0
:101FCC00002283F83C20012300E0002318460C3744
:101FDC00BD4680BC7047000080B586B000AF78600D
:101FEC007B68002B01D1012372E27B681B6803F034
:101FFC000103002B00F08780924B5B6803F00C030D
:10200C00042B0CD08F4B5B6803F00C03082B12D104
:10201C008C4B5B6803F48033B3F5803F0BD1894B59
:10202C001B6803F40033002B6CD07B685B68002BBF
:10203C0068D101234CE27B685B68B3F5803F06D125
:10204C00804B1B687F4A43F4803313602EE07B681F
:10205C005B68002B0CD17B4B1B687A4A23F48033D2
:10206C001360784B1B68774A23F4802313601DE0C0
:10207C007B685B68B3F5A02F0CD1724B1B68714A5F
:10208C0043F4802313606F4B1B686E4A43F4803318
:10209C0013600BE06B4B1B686A4A23F480331360AC
:1020AC00684B1B68674A23F4802313607B685B686A
:1020BC00002B13D0FEF7AEFC386108E0FEF7AAFC4B
:1020CC0002463B69D31A642B01D9032300E25D4B12
:1020DC001B6803F40033002BF0D014E0FEF79AFCDD
:1020EC00386108E0FEF796FC02463B69D31A642B74
:1020FC0001D90323ECE1534B1B6803F40033002B91
:10210C00F0D100E000BF7B681B6803F00203002BDA
:10211C0063D04C4B5B6803F00C03002B0BD0494B8A
:10212C005B6803F00C03082B1CD1464B5B6803F473
:10213C008033002B16D1434B1B6803F00203002B9A
:10214C0005D07B681B69012B01D00123C0E13D4BFD
:10215C001B6823F0F8027B685B69DB003949134389
:10216C000B603AE07B681B69002B20D0364B0122B8
:10217C001A60FEF74FFC386108E0FEF74BFC024694
:10218C003B69D31A022B01D90323A1E12D4B1B6808
:10219C0003F00203002BF0D02A4B1B6823F0F8024B
:1021AC007B685B69DB00274913430B6015E0264B0A
:1021BC0000221A60FEF72EFC386108E0FEF72AFCBC
:1021CC0002463B69D31A022B01D9032380E11D4B34
:1021DC001B6803F00203002BF0D17B681B6803F033
:1021EC000803002B3AD07B689B69002B19D0174B46
:1021FC0001221A60FEF70EFC386108E0FEF70AFCBB
:10220C0002463B69D31A022B01D9032360E10D4B23
:10221C005B6A03F00203002BF0D0012000F0CEFA31
:10222C001CE00A4B00221A60FEF7F4FB38610FE049
:10223C00FEF7F0FB02463B69D31A022B08D90323A5
:10224C0046E100BF001002400000424280044242BE
:10225C00924B5B6A03F00203002BE9D17B681B688D
:10226C0003F00403002B00F0A6800023FB758B4BBE
:10227C00DB6903F08053002B0DD1884BDB69874A57
:10228C0043F08053D361854BDB6903F08053BB6013
:10229C00BB680123FB75824B1B6803F48073002B16
:1022AC0018D17F4B1B687E4A43F480731360FEF792
:1022BC00B1FB386108E0FEF7ADFB02463B69D31A6F
:1022CC00642B01D9032303E1754B1B6803F4807362
:1022DC00002BF0D07B68DB68012B06D16F4B1B6A9F
:1022EC006E4A43F0010313622DE07B68DB68002B20
:1022FC000CD16A4B1B6A694A23F001031362674BCA
:10230C001B6A664A23F0040313621CE07B68DB68DB
:10231C00052B0CD1614B1B6A604A43F0040313621A
:10232C005E4B1B6A5D4A43F0010313620BE05B4B8F
:10233C001B6A5A4A23F001031362584B1B6A574A13
:10234C0023F0040313627B68DB68002B15D0FEF7C7
:10235C0061FB38610AE0FEF75DFB02463B69D31A6C
:10236C0041F28832934201D90323B1E04B4B1B6AF3
:10237C0003F00203002BEED014E0FEF74BFB3861A8
:10238C000AE0FEF747FB02463B69D31A41F288325A
:10239C00934201D903239BE0404B1B6A03F00203D9
:1023AC00002BEED1FB7D012B05D13C4BDB693B4A6D
:1023BC0023F08053D3617B68DB69002B00F08780AE
:1023CC00364B5B6803F00C03082B61D07B68DB6930
:1023DC00022B46D1334B00221A60FEF71BFB3861EF
:1023EC0008E0FEF717FB02463B69D31A022B01D912
:1023FC0003236DE0294B1B6803F00073002BF0D115
:10240C007B681B6AB3F5803F08D1244B5B6823F4CF
:10241C0000327B689B68214913434B601F4B5B6800
:10242C0023F474127B68196A7B685B6A0B431B4943
:10243C0013434B601B4B01221A60FEF7EBFA386119
:10244C0008E0FEF7E7FA02463B69D31A022B01D9E2
:10245C0003233DE0114B1B6803F00073002BF0D0FD
:10246C0035E0104B00221A60FEF7D4FA386108E010
:10247C00FEF7D0FA02463B69D31A022B01D903238B
:10248C0026E0064B1B6803F00073002BF0D11EE016
:10249C007B68DB69012B07D1012319E00010024096
:1024AC0000700040600042420B4B5B68FB60FB68B5
:1024BC0003F480327B681B6A9A4206D1FB6803F4F2
:1024CC0070127B685B6A9A4201D0012300E0002302
:1024DC0018461837BD4680BD0010024080B584B048
:1024EC0000AF786039607B68002B01D10123D0E00C
:1024FC006A4B1B6803F007033A689A4210D9674B82
:10250C001B6823F0070265493B6813430B60634B60
:10251C001B6803F007033A689A4201D00123B8E024
:10252C007B681B6803F00203002B20D07B681B68C0
:10253C0003F00403002B05D0594B5B68584A43F455
:10254C00E06353607B681B6803F00803002B05D025
:10255C00534B5B68524A43F460535360504B5B6877
:10256C0023F0F0027B689B684D4913434B607B68FA
:10257C001B6803F00103002B40D07B685B68012BC8
:10258C0007D1474B1B6803F40033002B15D10123F3
:10259C007FE07B685B68022B07D1414B1B6803F023
:1025AC000073002B09D1012373E03D4B1B6803F032
:1025BC000203002B01D101236BE0394B5B6823F044
:1025CC0003027B685B68364913434B60FEF722FAC3
:1025DC00F8600AE0FEF71EFA0246FB68D31A41F2D5
:1025EC008832934201D9032353E02D4B5B6803F0EF
:1025FC000C027B685B689B009A42EBD1274B1B68F3
:10260C0003F007033A689A4210D2244B1B6823F05C
:10261C00070222493B6813430B60204B1B6803F0F5
:10262C0007033A689A4201D0012332E07B681B68A9
:10263C0003F00403002B08D0194B5B6823F4E06211
:10264C007B68DB68164913434B607B681B6803F09F
:10265C000803002B09D0124B5B6823F460527B6893
:10266C001B69DB000E4913434B6000F021F8024656
:10267C000B4B5B681B0903F00F030A49CB5C22FA76
:10268C0003F3094A1360094B1B681846FEF780F9DF
:10269C00002318461037BD4680BD00BF0020024005
:1026AC0000100240D8490008040000200800002057
:1026BC0080B487B000AF0023FB600023BB60002315
:1026CC007B6100237B6000233B611E4B5B68FB60DE
:1026DC00FB6803F00C03042B02D0082B03D027E07B
:1026EC00194B3B6127E0FB689B0C03F00F03174A67
:1026FC00D35C7B60FB6803F48033002B10D0114B50
:10270C005B685B0C03F00103114AD35CBB607B6814
:10271C000D4A03FB02F2BB68B2FBF3F37B6104E0EE
:10272C007B680C4A02FB03F37B617B693B6102E033
:10273C00054B3B6100BF3B6918461C37BD4680BC4E
:10274C00704700BF0010024000127A00F0490008E8
:10275C00004A000800093D0080B400AF024B1B6822
:10276C001846BD4680BC70470400002080B500AF01
:10277C00FFF7F2FF0246054B5B681B0A03F00703E9
:10278C000349CB5C22FA03F3184680BD00100240CB
:10279C00E849000880B500AFFFF7DEFF0246054BA5
:1027AC005B68DB0A03F007030349CB5C22FA03F3F3
:1027BC00184680BD00100240E849000880B485B07E
:1027CC0000AF78600A4B1B680A4AA2FB03235B0A22
:1027DC007A6802FB03F3FB6000BFFB685A1EFA60C9
:1027EC00002BF9D100BF00BF1437BD4680BC704729
:1027FC0004000020D34D621080B582B000AF786029
:10280C007B68002B01D1012376E07B685B6A002B8F
:10281C0008D17B685B68B3F5827F09D07B680022A6
:10282C00DA6105E07B6800221A617B6800225A613C
:10283C007B6800229A627B6893F85130DBB2002BE4
:10284C0006D17B68002283F850207868FDF764FF7E
:10285C007B68022283F851207B681B681A687B68AE
:10286C001B6822F040021A607B685B6803F482727A
:10287C007B689B6803F404431A437B68DB6803F4AE
:10288C0000631A437B681B6903F002031A437B68DD
:10289C005B6903F001031A437B689B6903F40073C3
:1028AC001A437B68DB6903F038031A437B681B6AA5
:1028BC0003F0800342EA03017B689B6A03F4005235
:1028CC007B681B680A431A607B689B691A0C7B68DF
:1028DC001B6802F004025A607B681B68DA697B682B
:1028EC001B6822F40062DA617B6800225A657B68FF
:1028FC00012283F85120002318460837BD4680BDBD
:10290C0080B588B000AFF860B9603B601346FB80BF
:10291C00FEF780F8F861FB887B83FB6893F85130F5
:10292C00DBB2012B01D002232AE1BB68002B02D0C1
:10293C00FB88002B01D1012322E1FB6893F8503076
:10294C00012B01D102231BE1FB68012283F85020EB
:10295C00FB68032283F85120FB6800225A65FB6850
:10296C00BA681A63FB68FA889A86FB68FA88DA8672
:10297C00FB6800229A63FB6800229A87FB6800229E
:10298C00DA87FB6800225A64FB6800221A64FB6831
:10299C009B68B3F5004F0FD1FB681B681A68FB6886
:1029AC001B6822F040021A60FB681B681A68FB68FF
:1029BC001B6842F480421A60FB681B681B6803F0BA
:1029CC004003402B07D0FB681B681A68FB681B6828
:1029DC0042F040021A60FB68DB68B3F5006F52D11D
:1029EC00FB685B68002B02D07B8B012B45D1FB680D
:1029FC001B6B1A88FB681B68DA60FB681B6B9A1CE4
:102A0C00FB681A63FB68DB8E9BB2013B9AB2FB68D6
:102A1C00DA8632E0FB681B689B6803F00203022B2A
:102A2C0012D1FB681B6B1A88FB681B68DA60FB68A9
:102A3C001B6B9A1CFB681A63FB68DB8E9BB2013B19
:102A4C009AB2FB68DA8618E0FDF7E4FF0246FB69F0
:102A5C00D31A3A689A4203D83B68B3F1FF3F02D1CC
:102A6C003B68002B09D1FB68012283F85120FB68DD
:102A7C00002283F85020032382E0FB68DB8E9BB29C
:102A8C00002BC7D153E0FB685B68002B02D07B8B1B
:102A9C00012B47D1FB681A6BFB681B680C3312784F
:102AAC001A70FB681B6B5A1CFB681A63FB68DB8E85
:102ABC009BB2013B9AB2FB68DA8633E0FB681B6879
:102ACC009B6803F00203022B13D1FB681A6BFB68A3
:102ADC001B680C3312781A70FB681B6B5A1CFB6852
:102AEC001A63FB68DB8E9BB2013B9AB2FB68DA86F9
:102AFC0018E0FDF78FFF0246FB69D31A3A689A4239
:102B0C0003D83B68B3F1FF3F02D13B68002B09D1DE
:102B1C00FB68012283F85120FB68002283F85020C7
:102B2C0003232DE0FB68DB8E9BB2002BC6D1FA6928
:102B3C003968F86800F0C4FB0346002B02D0FB6830
:102B4C0020225A65FB689B68002B0AD100237B610D
:102B5C00FB681B68DB687B61FB681B689B687B619F
:102B6C007B69FB68012283F85120FB68002283F803
:102B7C005020FB685B6D002B01D0012300E000238B
:102B8C0018462037BD4680BD80B588B002AFF860CE
:102B9C00B9603B601346FB80FB6893F85130DBB2A5
:102BAC00012B01D0022304E1FB685B68B3F5827F43
:102BBC0012D1FB689B68002B0ED1FB68042283F8B2
:102BCC005120FA883B6800931346BA68B968F868D4
:102BDC0000F0F3F80346ECE0FDF71CFF7861BB68EE
:102BEC00002B02D0FB88002B01D10123E1E0FB6814
:102BFC0093F85030012B01D10223DAE0FB6801225B
:102C0C0083F85020FB68042283F85120FB680022D3
:102C1C005A65FB68BA689A63FB68FA889A87FB68FE
:102C2C00FA88DA87FB6800221A63FB6800229A860E
:102C3C00FB680022DA86FB6800221A64FB6800221B
:102C4C005A64FB689B68B3F5004F0FD1FB681B6897
:102C5C001A68FB681B6822F040021A60FB681B684C
:102C6C001A68FB681B6822F480421A60FB681B68B8
:102C7C001B6803F04003402B07D0FB681B681A68E5
:102C8C00FB681B6842F040021A60FB68DB68002B93
:102C9C0070D135E0FB681B689B6803F00103012BC6
:102CAC0015D1FB681B6803F10C02FB689B6B127857
:102CBC00D2B21A70FB689B6B5A1CFB689A63FB6858
:102CCC00DB8F9BB2013B9AB2FB68DA8718E0FDF709
:102CDC00A1FE02467B69D31A3A689A4203D83B6834
:102CEC00B3F1FF3F02D13B68002B09D1FB680122F5
:102CFC0083F85120FB68002283F85020032358E00E
:102D0C00FB68DB8F9BB2002BC4D138E0FB681B68DF
:102D1C009B6803F00103012B13D1FB681B68DA6875
:102D2C00FB689B6B92B21A80FB689B6B9A1CFB68CE
:102D3C009A63FB68DB8F9BB2013B9AB2FB68DA8724
:102D4C0018E0FDF767FE02467B69D31A3A689A428F
:102D5C0003D83B68B3F1FF3F02D13B68002B09D18C
:102D6C00FB68012283F85120FB68002283F8502075
:102D7C0003231EE0FB68DB8F9BB2002BC6D17A6964
:102D8C003968F86800F04AFA0346002B02D0FB6859
:102D9C0020225A65FB68012283F85120FB6800222F
:102DAC0083F85020FB685B6D002B01D0012300E001
:102DBC00002318461837BD4680BD80B58AB000AFD9
:102DCC00F860B9607A607B8001237B62FDF722FE9C
:102DDC003862FB6893F85130FB77FB685B68BB612A
:102DEC007B88FB82FB7F012B0CD0BB69B3F5827F08
:102DFC0006D1FB689B68002B02D1FB7F042B01D012
:102E0C0002237FE1BB68002B05D07B68002B02D02E
:102E1C007B88002B01D1012374E1FB6893F85030BF
:102E2C00012B01D102236DE1FB68012283F85020B4
:102E3C00FB6893F85130DBB2042B03D0FB680522FE
:102E4C0083F85120FB6800225A65FB687A689A6304
:102E5C00FB687A88DA87FB687A889A87FB68BA6895
:102E6C001A63FB687A88DA86FB687A889A86FB682C
:102E7C0000221A64FB6800225A64FB681B681B68FA
:102E8C0003F04003402B07D0FB681B681A68FB68F3
:102E9C001B6842F040021A60FB68DB68B3F5006FF8
:102EAC007ED1FB685B68002B02D0FB8A012B6CD1B6
:102EBC00FB681B6B1A88FB681B68DA60FB681B6B72
:102ECC009A1CFB681A63FB68DB8E9BB2013B9AB2BF
:102EDC00FB68DA8659E0FB681B689B6803F0020309
:102EEC00022B1BD1FB68DB8E9BB2002B16D07B6AAE
:102EFC00012B13D1FB681B6B1A88FB681B68DA600B
:102F0C00FB681B6B9A1CFB681A63FB68DB8E9BB21D
:102F1C00013B9AB2FB68DA8600237B62FB681B6874
:102F2C009B6803F00103012B19D1FB68DB8F9BB26B
:102F3C00002B14D0FB681B68DA68FB689B6B92B2A1
:102F4C001A80FB689B6B9A1CFB689A63FB68DB8F8F
:102F5C009BB2013B9AB2FB68DA8701237B62FDF7D7
:102F6C0059FD02463B6AD31A3A6B9A420DD83B6B19
:102F7C00B3F1FF3F09D0FB68012283F85120FB68B5
:102F8C00002283F850200323BCE0FB68DB8E9BB24D
:102F9C00002BA0D1FB68DB8F9BB2002B9BD182E076
:102FAC00FB685B68002B02D0FB8A012B71D1FB689C
:102FBC001A6BFB681B680C3312781A70FB681B6B5E
:102FCC005A1CFB681A63FB68DB8E9BB2013B9AB2FE
:102FDC00FB68DA865DE0FB681B689B6803F0020304
:102FEC00022B1CD1FB68DB8E9BB2002B17D07B6AAB
:102FFC00012B14D1FB681A6BFB681B680C3312781D
:10300C001A70FB681B6B5A1CFB681A63FB68DB8E1F
:10301C009BB2013B9AB2FB68DA8600237B62FB68A9
:10302C001B689B6803F00103012B19D1FB68DB8F34
:10303C009BB2002B14D0FB681B68DA68FB689B6B97
:10304C00D2B21A70FB689B6B5A1CFB689A63FB68C4
:10305C00DB8F9BB2013B9AB2FB68DA8701237B6260
:10306C00FDF7D8FC02463B6AD31A3A6B9A4203D856
:10307C003B6BB3F1FF3F02D13B6B002B09D1FB68DB
:10308C00012283F85120FB68002283F8502003238F
:10309C0038E0FB68DB8E9BB2002B9CD1FB68DB8F8E
:1030AC009BB2002B97D13A6A396BF86800F008F99B
:1030BC000346002B08D0FB6820225A65FB680022CF
:1030CC0083F8502001231DE0FB689B68002B0AD17C
:1030DC0000233B61FB681B68DB683B61FB681B687A
:1030EC009B683B613B69FB68012283F85120FB68BC
:1030FC00002283F85020FB685B6D002B01D001236C
:10310C0000E0002318462837BD4680BD80B588B046
:10311C0000AFF860B9603B601346FB71FDF77AFCB9
:10312C000246BB6A9B1A3A681344FB61FDF772FCBA
:10313C00B861394B1B685B011B0DFA6902FB03F389
:10314C007B6154E03B68B3F1FF3F50D0FDF762FC6C
:10315C000246BB69D31AFA699A4202D9FB69002B61
:10316C003DD1FB681B685A68FB681B6822F0E002C3
:10317C005A60FB685B68B3F5827F11D1FB689B6872
:10318C00B3F5004F04D0FB689B68B3F5806F07D193
:10319C00FB681B681A68FB681B6822F040021A6007
:1031AC00FB689B6AB3F5005F0FD1FB681B681A685C
:1031BC00FB681B6822F400521A60FB681B681A68D3
:1031CC00FB681B6842F400521A60FB68012283F80A
:1031DC005120FB68002283F85020032317E07B6901
:1031EC00002B01D10023FB617B69013B7B61FB68F8
:1031FC001B689A68BB681340BA689A420CBF0123DB
:10320C000023DBB21A46FB799A429BD10023184665
:10321C002037BD4680BD00BF0400002080B586B0BD
:10322C0002AFF860B9607A60FB685B68B3F5827FC7
:10323C0011D1FB689B68B3F5004F04D0FB689B6809
:10324C00B3F5806F07D1FB681B681A68FB681B68B5
:10325C0022F040021A60FB685B68B3F5827F17D1DD
:10326C00FB689B68B3F5806F12D17B680093BB68D9
:10327C0000220121F868FFF749FF0346002B1AD002
:10328C00FB685B6D43F02002FB685A65032313E077
:10329C007B680093BB6800228021F868FFF736FF3B
:1032AC000346002B07D0FB685B6D43F02002FB68E4
:1032BC005A65032300E0002318461037BD4680BD35
:1032CC0080B586B002AFF860B9607A607B68009315
:1032DC00BB6801220221F868FFF718FF0346002B98
:1032EC0007D0FB685B6D43F02002FB685A65032333
:1032FC0013E07B680093BB6800228021F868FFF71D
:10330C0005FF0346002B07D0FB685B6D43F02002E2
:10331C00FB685A65032300E0002318461037BD46AE
:10332C0080BD80B582B000AF78607B68002B01D186
:10333C00012342E07B6893F84130DBB2002B06D1CD
:10334C007B68002283F840207868FDF731FA7B68AF
:10335C00242283F841207B681B68DA687B681B6831
:10336C0022F40052DA60786800F02CF87B681B6855
:10337C001A697B681B6822F490421A617B681B688F
:10338C005A697B681B6822F02A025A617B681B68A9
:10339C00DA687B681B6842F40052DA607B680022B2
:1033AC005A647B68202283F841207B68202283F8B2
:1033BC0042207B6800225A63002318460837BD461A
:1033CC0080BD000080B584B000AF78607B681B685E
:1033DC001B6923F440517B68DA687B681B680A43DD
:1033EC001A617B689A687B681B691A437B685B6906
:1033FC001343BB607B681B68DB6823F4B05323F07A
:10340C000C037A681268B9680B43D3607B681B683D
:10341C005B6923F440717B689A697B681B680A437B
:10342C005A617B681B682C4A934203D1FFF7B2F9AF
:10343C00F86002E0FFF79AF9F860FA6813469B000F
:10344C0013449A001A447B685B689B00B2FBF3F34D
:10345C00224AA2FB03235B091901FA6813469B005D
:10346C0013449A001A447B685B689B00B2FBF3F22E
:10347C001A4BA3FB02035B09642000FB03F3D31A72
:10348C001B013233154AA2FB03235B0903F0F00343
:10349C001944FA6813469B0013449A001A447B683B
:1034AC005B689B00B2FBF3F20C4BA3FB02035B09C2
:1034BC00642000FB03F3D31A1B013233074AA2FB2F
:1034CC0003235B0903F00F027B681B680A449A60B4
:1034DC0000BF1037BD4680BD003801401F85EB5141
:1034EC0080B584B000AF03460A46FB711346BB712E
:1034FC00FB795B00DBB203F07E03DBB2FB730022D3
:10350C004FF400610D48FDF71BFD07F10F014FF45F
:10351C00FA7301220A48FFF7F3F9B91D4FF4FA7355
:10352C0001220748FFF7ECF901224FF40061034830
:10353C00FDF706FD00BF1037BD4680BD000C0140F5
:10354C000C01002080B584B000AF0346FB7197F9E5
:10355C0007305B005BB203F07E035BB263F07F036A
:10356C005BB2DBB2BB7300224FF400610E48FDF777
:10357C00E7FC07F10E014FF4FA7301220B48FFF739
:10358C00BFF907F10F014FF4FA7301220748FFF757
:10359C00FBFA01224FF400610348FDF7D1FCFB7BE1
:1035AC0018461037BD4680BD000C01400C010020B0
:1035BC0080B584B000AF03460A46FB711346BB715D
:1035CC00FB791846FFF7BEFF0346FB73FA7BBB790A
:1035DC001343DAB2FB7911461846FFF781FF00BF9F
:1035EC001037BD4680BD80B582B000AF1420FFF708
:1035FC00A9FF0346FB71FB7903F00303002B03D1F6
:10360C0003211420FFF7D4FF00BF0837BD4680BD4F
:10361C0080B500AF0F210120FFF762FF00BF80BD16
:10362C0080B500AFFFF7F4FF80212A20FFF758FF89
:10363C00A9212B20FFF754FF03212D20FFF750FF6A
:10364C00E8212C20FFF74CFF40211520FFF748FF05
:10365C003D211120FFF744FFFFF7C5FF00BF80BDE0
:10366C0080B483B000AF786039607B68DA683B68FF
:10367C00DB431A407B68DA6000BF0C37BD4680BC68
:10368C00704780B483B000AF786039607B68DA68CB
:10369C003B681A437B68DA6000BF0C37BD4680BCC0
:1036AC00704780B483B000AF78600B46FB707B68CA
:1036BC009B68FA78012101FA02F21340FA78012191
:1036CC0001FA02F2934201D1012300E000231846D3
:1036DC000C37BD4680BC704780B586B002AF034640
:1036EC00FB71FB7923F00F03FB73FB791B01BB739D
:1036FC00FB7B43F00C03DBB23B72FB7B43F0080318
:10370C00DBB27B72BB7B43F00C03DBB2BB72BB7BCB
:10371C0043F00803DBB2FB7207F108026423009349
:10372C0004237E210348FDF767FD00BF1037BD461B
:10373C0080BD00BFB800002080B586B002AF034644
:10374C00FB71FB7923F00F03FB73FB791B01BB733C
:10375C00FB7B43F00D03DBB23B72FB7B43F00903B5
:10376C00DBB27B72BB7B43F00D03DBB2BB72BB7B6A
:10377C0043F00903DBB2FB7207F1080264230093E8
:10378C0004237E210348FDF737FD00BF1037BD46EB
:10379C0080BD00BFB800002080B582B000AF002013
:1037AC00FFF79AFF00237B6005E02020FFF7C4FFA2
:1037BC007B6801337B607B68632BF6DD00BF00BF49
:1037CC000837BD4680BD80B500AF3220FDF72CF91F
:1037DC003020FFF781FF0520FDF726F93020FFF799
:1037EC007BFF0120FDF720F93020FFF775FF0A2041
:1037FC00FDF71AF92020FFF76FFF0A20FDF714F9E7
:10380C002820FFF769FF0120FDF70EF90820FFF7CC
:10381C0063FF0120FDF708F90120FFF75DFF02208F
:10382C00FDF702F90620FFF757FF0120FDF7FCF822
:10383C000C20FFF751FF00BF80BD000080B584B0A5
:10384C0000AF7860E123BB73EF237B73F5233B73ED
:10385C00E223FB720023FB736BE07B685A1C7A60DB
:10386C001B78BB72FB7B002B59D0BB7A9F3B1D2B6B
:10387C0052D801A252F823F01B3900082539000850
:10388C00253900082539000825390008FD380008BD
:10389C002539000825390008253900082539000884
:1038AC002539000825390008253900082539000874
:1038BC002539000825390008253900082539000864
:1038CC002539000825390008253900082539000854
:1038DC002539000807390008253900082539000862
:1038EC002539000825390008253900081139000848
:1038FC00BB7B1846FFF720FF0EE07B7B1846FFF7DB
:10390C001BFF09E03B7B1846FFF716FF04E0FB7A30
:10391C001846FFF711FF00BF0023FB7309E0BB7AC9
:10392C00C32B02D10123FB7303E0BB7A1846FFF7CC
:10393C0003FF7B681B78002B8FD100BF00BF1037B3
:10394C00BD4680BD80B582B000AF78600B46FB7081
:10395C001346BB70BA78FB781146184600F01AF87B
:10396C00FA78B9780A4813469B0013449B00034429
:10397C000B441B7863F07F03DBB21846FFF7ACFEF9
:10398C007868FFF75BFF00BF0837BD4680BD00BFFE
:10399C00044A000880B584B000AF03460A46FB71A8
:1039AC001346BB71FA79B979104813469B0013443E
:1039BC009B0003440B441B7863F07F03DBB2184677
:1039CC00FFF78AFE0023FB6005E02020FFF7B4FE22
:1039DC00FB680133FB60BB79C3F11403FA689A42AC
:1039EC00F3DB00BF00BF1037BD4680BD044A0008A2
:1039FC0080B582B000AF78607B68032B3BD801A206
:103A0C0052F823F0213A0008353A00084F3A0008E2
:103A1C00693A000800211A48FFF722FE40F20241E1
:103A2C001848FFF72EFE26E002211648FFF718FE75
:103A3C0004211448FFF725FE00211148FFF721FE51
:103A4C0019E004210F48FFF70BFE02210D48FFF788
:103A5C0018FE00210A48FFF714FE0CE0002109486B
:103A6C00FFF7FEFD06210748FFF70BFE0021044877
:103A7C00FFF707FE00BF00BF0837BD4680BD00BF83
:103A8C0000080140000C014080B582B000AF00235B
:103A9C007B6028E07868FFF7ABFF00233B601CE0FD
:103AAC00154A3B6813441B7819461448FFF7F9FD77
:103ABC00034683F00103DBB2002B0BD04FF496705E
:103ACC0000F034FA0E4A7B689B001A443B6813449E
:103ADC001B780CE03B6801333B603B68032BDFDD5C
:103AEC007B6801337B607B68032BD3DD0023184696
:103AFC000837BD4680BD00BF100000200008014003
:103B0C001400002080B487B000AF0346B9607A601F
:103B1C00FB7300237B610BE07B690133BA681A44A9
:103B2C007B69B9680B4412781A707B6901337B612D
:103B3C007B68013B7A699A42EEDB7B68013BBA6891
:103B4C001344FA7B1A7000BF1C37BD4680BC70470B
:103B5C0080B582B000AF7860044A7B6813600020A7
:103B6C0000F006F800BF0837BD4680BDB801002044
:103B7C0080B584B000AF0346FB71FB79002B01D0FC
:103B8C00802300E00023FB73002000F03DF8034687
:103B9C005BB203F07F035AB297F90F3013435BB259
:103BAC00DBB21946002000F011F800BF1037BD46FB
:103BBC0080BD80B500AF002000F026F80346DB1175
:103BCC00DBB203F00103DBB2184680BD80B586B0D2
:103BDC0002AF03460A46FB711346BB71FB793B737C
:103BEC00BB797B73074B186807F10C024FF47A739F
:103BFC0000930223D021FDF7FFFA00BF1037BD461A
:103C0C0080BD00BFB801002080B586B002AF03466E
:103C1C00FB710D4B1868FA1D4FF47A730093012356
:103C2C00D021FDF7E9FA084B186807F10F024FF4A1
:103C3C007A7300930123D021FDF7DCFBFB7B184644
:103C4C001037BD4680BD00BFB801002080B500AF65
:103C5C000320FFF7D9FF0346184600F02DF9034661
:103C6C00184680BD80B500AF0420FFF7CDFF03469A
:103C7C00184600F021F90346184680BD80B500AF08
:103C8C000520FFF7C1FF0346184600F015F903465F
:103C9C00184680BD80B582B000AF1020FFF7B4FF8E
:103CAC0003461A46920013441A4691001A460B46D4
:103CBC0013449B00FB800620FFF7A6FF0346184623
:103CCC0000F0FAF803461A46FB8813449BB21846D8
:103CDC000837BD4680BD80B500AF0220FFF794FFCA
:103CEC00034603F03F03DBB2184600F0E5F8034649
:103CFC00184680BD80B500AF0120FFF785FF034655
:103D0C00184600F0D9F80346184680BD80B500AFC0
:103D1C000020FFF779FF034603F07F03DBB2184660
:103D2C0000F0CAF80346184680BD80B500AF0820E5
:103D3C00FFF76AFF03465BB2184680BD80B500AF43
:103D4C000920FFF761FF0346184680BD80B582B09D
:103D5C0000AF0346FB71FB79184600F0C5F803462B
:103D6C0019460320FFF732FF00BF0837BD4680BD60
:103D7C0080B582B000AF0346FB71FB79184600F0AA
:103D8C00B3F8034619460420FFF720FF00BF08379D
:103D9C00BD4680BD80B582B000AF0346FB71FB7998
:103DAC00184600F0A1F8034619460520FFF70EFF50
:103DBC0000BF0837BD4680BD80B582B000AF03465A
:103DCC00FB80FB88104AA2FB03235B099BB2DBB28E
:103DDC0019461020FFF7FAFEFB880B4AA2FB0312D0
:103DEC005209642101FB02F29B1A9BB2DBB218460A
:103DFC0000F07AF8034619460620FFF7E7FE00BFED
:103E0C000837BD4680BD00BF1F85EB5180B582B021
:103E1C0000AF0346FB71FB7903F03F03DBB218469E
:103E2C0000F062F8034619460220FFF7CFFE00BFF0
:103E3C000837BD4680BD80B582B000AF0346FB712C
:103E4C00FB79184600F050F8034619460120FFF79D
:103E5C00BDFE00BF0837BD4680BD80B584B000AF45
:103E6C000346FB71FFF7A5FE0346FB73FA79FB7B58
:103E7C001343DBB2184600F037F80346194600200E
:103E8C00FFF7A4FE00BF1037BD4680BD80B582B0E1
:103E9C0000AF03460A46FB711346BB71FB7919460A
:103EAC000820FFF793FEBB7919460920FFF78EFE19
:103EBC0000BF0837BD4680BD80B483B000AF034659
:103ECC00FB71FB791B09DBB21A46920013445B00B1
:103EDC00DAB2FB7903F00F03DBB21344DBB2184602
:103EEC000C37BD4680BC704780B483B000AF03462E
:103EFC00FB71FA790C4BA3FB0213D9080B469B0000
:103F0C000B445B00D31ADAB2FB790749A1FB03130C
:103F1C00DB08DBB21B01DBB21344DBB218460C37F7
:103F2C00BD4680BC704700BFCDCCCCCC80B485B036
:103F3C0000AF7860084B1B68FB6000BF064B1A682B
:103F4C00FB68D31A7A689A42F8D800BF00BF1437BE
:103F5C00BD4680BC704700BFBC0100200EB46FF0A2
:103F6C00004110B500249DB01FAB02900690079144
:103F7C0004910948094953F8042B0591006802A9DA
:103F8C0001931B9400F092F9029B1C701DB0BDE8CC
:103F9C00104003B0704700BF240000200802FFFF50
:103FAC0003460244934200D1704703F8011BF9E722
:103FBC00014B1868704700BF2400002070B5002624
:103FCC000C4D0D4C641BA410A64209D100F076FCDC
:103FDC0000260A4D0A4C641BA410A64205D170BDE4
:103FEC0055F8043B98470136EEE755F8043B9847E3
:103FFC000136F2E7884A0008884A0008884A000817
:10400C008C4A00087047704738B50546002940D0E7
:10401C0051F8043C0C1F002BB8BFE41800F0DEF87C
:10402C001C4A136833B9636014602846BDE83840F5
:10403C0000F0DAB8A34208D9206821188B4201BFDE
:10404C0019685B6809182160EDE71A465B680BB1CB
:10405C00A342FAD911685018A0420BD12068014430
:10406C00501883421160E0D118685B6808441060F6
:10407C005360DAE702D90C232B60D6E720682118AD
:10408C008B4201BF19685B6809182160636054603A
:10409C00CBE738BD0403002070B50F4E0C463168D9
:1040AC00054611B900F0A8FB30602146284600F007
:1040BC00A3FB431C03D14FF0FF34204670BDC41C3E
:1040CC0024F00304A042F8D0211A284600F094FBF7
:1040DC000130F2D1EFE700BF000300202DE9F843D7
:1040EC00CD1C25F0030508350C2D38BF0C25002DF3
:1040FC00064601DBA94204D90C2333600020BDE83D
:10410C00F883DFF8D48000F069F8D8F800301C464A
:10411C0044BB29463046FFF7BFFF431C044658D129
:10412C00D8F800402746002F43D1002C4BD02368F1
:10413C003946304604EB030900F05EFB814542D161
:10414C00216830466D1A2946FFF7A6FF01303AD098
:10415C0023682B442360D8F800305A6862BBC8F837
:10416C0000700FE02268521B20D40B2A17D961195A
:10417C00A342256018BF5960636808BFC8F80010D7
:10418C0062514B60304600F02FF804F10B00231DF8
:10419C0020F00700C21A1CBF1B1AA350AFE76268BD
:1041AC00A3420CBFC8F800205A60EBE723466468B2
:1041BC00AEE73C467F68B6E71A465B68A342FBD184
:1041CC0000235360DEE70C233046336000F00CF81C
:1041DC0094E70560D6E700BF040300200148FFF711
:1041EC0011BF00BFFC0200200148FFF70CBF00BF4D
:1041FC00FC0200202DE9F0471F468E688246BE4225
:10420C000C4690460B682DD8B1F90C2012F4906F27
:10421C0026D06569096905EB4505A3EB010905EB9A
:10422C00D5757B1C4B446D109D4238BF1D46530504
:10423C0027D52946FFF752FF064660B34A46216947
:10424C0000F0F8FAA38923F4906343F08003A38170
:10425C0026614E4426603E466561A5EB0905A560C6
:10426C00BE4200D93E4632464146206800F0AAFACA
:10427C000020A3689B1BA360236833442360BDE824
:10428C00F0872A4600F0E4FA06460028E0D15046B2
:10429C002169FFF7B9FE0C23CAF80030A3894FF04F
:1042AC00FF3043F04003A381E9E700002DE9F04F14
:1042BC0098468B8907461B060D4614469DB010D5B3
:1042CC000B6973B94021FFF709FF2860286130B9E9
:1042DC000C233B604FF0FF301DB0BDE8F08F402346
:1042EC006B610023099320238DF8293030234FF084
:1042FC000109CDF80C80DFF898818DF82A3023461F
:10430C009A4613F8012B0AB1252AF9D1BAEB040B02
:10431C000BD05B46224629463846FFF76BFF01302F
:10432C0000F0A780099A5A4409929AF80030002BA1
:10433C0000F09F8000234FF0FF32CDE905230AF1F6
:10434C00010A049307938DF853301A9354460522AF
:10435C0014F8011B4E4800F05FFA049AD8B9D00645
:10436C0044BF20238DF85330110744BF2B238DF805
:10437C0053309AF800302A2B15D0544600204FF0B9
:10438C000A0C079A214611F8013B303B092B4BD9FB
:10439C00B0B1079214E0A0EB080309FA03F313433E
:1043AC00A2460493D2E7039B191D1B680391002BB3
:1043BC00BBBF5B4242F0020207930793B8BF049263
:1043CC0023782E2B0AD163782A2B32D1039B02340B
:1043DC001A1D1B68039243EAE3730593DFF8B4A03C
:1043EC0003225046217800F017FA38B14022049B82
:1043FC00A0EB0A00824013430134049314F8011B10
:10440C00062225488DF8281000F006FA002836D030
:10441C00224B1BBB039B073323F007030833039387
:10442C00099B334409936AE70C4601200CFB0232CA
:10443C00A8E700234FF00A0C1946013405932046D7
:10444C0010F8012B303A092A03D9002BC6D005915C
:10445C00C4E7044601230CFB0121F0E703AB0093F6
:10446C002A4638460E4B04A9AFF30080421C064680
:10447C00D6D1AB895B063FF52DAF09982CE703AB82
:10448C0000932A463846064B04A900F07DF8EDE768
:10449C00544A00085A4A00085E4A0008000000000E
:1044AC00014200082DE9F047164698468A680B69C8
:1044BC0007469342B8BF1346336091F843200C462D
:1044CC00DDF820900AB1013333602368990642BFAE
:1044DC00336802333360256815F0060506D104F104
:1044EC00190AE36832689B1AAB422BDC94F8433010
:1044FC002268003B18BF0123920630D4414638464F
:10450C0004F14302C847013023D02368226903F029
:10451C000603042B14BF002533684FF0000608BFB8
:10452C00E56804F11A0408BFED1A54F8123C08BFF0
:10453C0025EAE5759342C4BF9B1AED18B5421AD112
:10454C00002008E00123524641463846C847013056
:10455C0003D14FF0FF30BDE8F0870135C1E73020C3
:10456C00E11881F843005A1C94F845102244023398
:10457C0082F84310C2E70123224641463846C84719
:10458C000130E6D00136D9E72DE9FF470F7E914681
:10459C00782F80460C469A460C9E01F1430207D8B0
:1045AC00622F0AD8002F00F0D180582F00F0B8806D
:1045BC0004F1420684F842703AE0A7F16303152B2C
:1045CC00F6D801A151F823F02D4600084146000809
:1045DC00BD450008BD450008BD450008BD450008A7
:1045EC0041460008BD450008BD450008BD45000812
:1045FC00BD4500083F4700086B460008F946000817
:10460C00BD450008BD45000861470008BD450008D0
:10461C006B460008BD450008BD4500080147000871
:10462C0033681A1D1B68326004F1420684F842306C
:10463C0001239CE033682068191D3160060601D502
:10464C001D6803E04506FBD5B3F90050002D03DAD5
:10465C002D236D4284F843300A23584811E0216819
:10466C003368080653F8045B02D4490648BFADB260
:10467C006F2F336014BF0A2308235048002184F89D
:10468C0043106668002EA66005DB21682E4321F0DE
:10469C00040121604BD01646B5FBF3F103FB115717
:1046AC00C75D06F8017D2F46BB420D46F4D9082B99
:1046BC000BD12368DF0708D5236961689942DEBFF7
:1046CC00302306F8013C06F1FF36921B22614B4663
:1046DC0021464046CDF800A003AAFFF7E3FE0130C7
:1046EC004AD14FF0FF3004B0BDE8F087236843F0A7
:1046FC00200323607827324884F84570236831689A
:10470C001F0651F8045B02D45F0648BFADB231609E
:10471C00D90744BF43F0200323601DB11023ADE73C
:10472C002648E9E7236823F020032360F6E71646C2
:10473C00BDE733682568181D616930602E061B685B
:10474C0001D5196002E06806FBD5198000231646D6
:10475C002361BCE7336800211A1D32601E68626851
:10476C00304600F059F808B1801B60606368236123
:10477C00002384F84330AAE7324649464046236971
:10478C00D0470130ADD023689B0713D4E068039B5E
:10479C009842B8BF1846A6E7012332464946404620
:1047AC00D04701309DD00135E36803995B1AAB42C9
:1047BC00F2DCEBE7002504F11906F5E7654A000881
:1047CC00764A0008884210B501EB020402D98442F3
:1047DC00234607D8431EA14208D011F8012B03F839
:1047EC00012FF8E7014602448A4200D110BD13F8AC
:1047FC00014D02F8014DF7E738B50023054D04468D
:10480C0008462B60FCF74CF8431C02D12B6803B113
:10481C00236038BDF8020020034610B5C9B202442B
:10482C009342184601D1002003E0047801338C42F6
:10483C00F6D110BD0A44914200F1FF3300D170470C
:10484C0010B511F8014B914203F8014FF9D110BD8D
:10485C002DE9F041074614460D4621B91146BDE835
:10486C00F041FFF73BBC2AB9FFF7CEFB25462846A3
:10487C00BDE8F08100F01AF88442064602D8B4EB89
:10488C00500FF4D821463846FFF728FC804608B96B
:10489C004546ECE7B4422246294628BF3246FFF78C
:1048AC00C9FF29463846FFF7AFFBF1E751F8043C46
:1048BC00181F002BBCBF0B58C0187047F8B500BFB1
:1048CC00F8BC08BC9E467047F8B500BFF8BC08BCE5
:0448DC009E4670473D
:1048E000456E7465722074696D6520696E20484854
:1048F0004D4D535320666F726D61742028652E678D
:104900002E2C20313435393539293A0D0A00000072
:1049100054696D6520736574210D0A0054696D65D5
:104920003A20253032643A253032643A25303264F8
:104930000D0A000047726F757020313200000000D0
:104940005246494420434152442052454144455235
:10495000000000007665723A257800005243353237
:1049600032207265616479210000000054696D6530
:104970003A2025753A25753A2575000025732C20B7
:1049800025752F25752F2575000000006B65795062
:1049900061645F636861723A2025750053756E002B
:1049A0004D6F6E00547565005765640054687572EC
:1049B0000000000046726900536174009C490008C1
:1049C000A0490008A4490008A8490008AC4900080B
:1049D000B4490008B84900080000000000000000C9
:1049E0000102030406070809000000000102030495
:1049F00002030405060708090A0B0C0D0E0F101020
:104A000001020000000102030405060708090A0B61
:104A10000C0D0E0F101112134041424344454647FE
:104A200048494A4B4C4D4E4F50515253141516178E
:104A300018191A1B1C1D1E1F20212223242526277E
:104A40005455565758595A5B5C5D5E5F60616263AE
:104A500064656667232D302B2000686C4C0065660A
:104A600067454647003031323334353637383941BF
:104A700042434445460030313233343536373839D5
:084A80006162636465660000D9
:044A880031010008F0
:044A8C000D01000810
:104A90003030000000127A00100000000100000019
:104AA000030405063134372A32353830333639239A
:104AB000414243442800002000000000C0010020C3
:104AC00028020020900200200000000000000000EA
:104AD00000000000000000000000000000000000D6
:104AE00000000000000000000000000000000000C6
:104AF00000000000000000000000000000000000B6
:044B000000000000B1
:0400000508000925C1
:00000001FF
