:020000040800F2
:1000000000500020B9090008E9080008F1080008BC
:10001000F9080008010900080909000800000000AB
:1000200000000000000000000000000011090008AE
:100030001D09000800000000290900083509000812
:10004000010A0008010A0008010A0008010A000864
:10005000010A0008010A0008010A0008010A000854
:10006000010A0008010A0008010A0008010A000844
:10007000010A0008010A0008010A0008010A000834
:10008000010A0008010A0008010A0008010A000824
:10009000010A0008010A0008010A0008010A000814
:1000A000010A0008010A0008010A0008010A000804
:1000B000010A0008010A0008010A0008010A0008F4
:1000C000010A0008010A0008010A0008010A0008E4
:1000D000010A0008010A0008010A0008010A0008D4
:1000E000010A0008010A0008010A000800000000D7
:1000F0000000000000000000000000000000000000
:0C01000000000000000000005FF808F1A3
:10010C0010B5054C237833B9044B13B10448AFF345
:10011C0000800123237010BD5C0000200000000053
:10012C00803F000808B5034B1BB103490348AFF3EC
:10013C00008008BD0000000060000020803F000827
:10014C0080B400AFBFF34F8F00BF064BDB6803F4E6
:10015C00E0620449044B1343CB60BFF34F8F00BFE5
:10016C0000BFFDE700ED00E00400FA0590B5ADB06E
:10017C0004AF0023C7F89C3000F03EFC00F070F98F
:10018C0000F038FA00F00CFA00F0A6F900F0D2F901
:10019C0003F0F5F8002201219B4803F0AFF900228F
:1001AC0000219A4803F0AAF94FF47A7000F086FC0B
:1001BC0001224FF48061964800F026FF642000F085
:1001CC007DFC03F0C5F802F00FFF02F015FF02F002
:1001DC00F6FE4FF47A7000F071FC4FF47A73C7F8A6
:1001EC0098300023A7F8963007F13403232200211E
:1001FC00184603F031FA874B7B63002387F83830BD
:10020C00854A07F139031068186012791A71834A0C
:10021C0007F13E031068186012791A71804A07F1D1
:10022C0043031068186012791A717E4BBB6400236B
:10023C0087F84C307C4A07F14D031068186012792E
:10024C001A71372002F04AFE034687F8953097F86A
:10025C0095301A467549764803F0DCF997F89530D5
:10026C00912B03D097F89530922B0AD100220021C4
:10027C006F4803F043F9002201216E4803F03EF968
:10028C000FE0002200216A4803F038F90022012116
:10029C00694803F033F94FF4FA6000F00FFC00F0FA
:1002AC001EFD4FF47A7000F009FC03F051F8372072
:1002BC0002F014FE034687F8943097F8942007F167
:1002CC0018035E49184603F0A5F907F1180300223C
:1002DC000021184603F012F997F89430922B70D144
:1002EC00D7F89C30132B6CDCD7F89C300133C7F853
:1002FC009C3007F17C031946522002F09DFE034608
:10030C0087F8933097F893301A464D49484803F0D4
:10031C0081F90A220021464803F0F0F84FF47A7074
:10032C0000F0CCFB97F89330012B05D10022012172
:10033C00444803F0E3F85EE097F89330022B05D1C4
:10034C0000220121404803F0D9F854E097F893308B
:10035C00002B50D107F17403184602F05BFF0346E3
:10036C0087F8933097F89330002B44D197F874307A
:10037C001C4697F8753097F8762097F87710381D4B
:10038C000291019200932346304A142103F00CF998
:10039C0002F0DEFF002200212D4803F0AFF83B1DD8
:1003AC0000220121184603F0A9F84FF4FA6000F07E
:1003BC0085FB02F0CDFF00220021264803F09EF8B9
:1003CC0019E097F89430922B03D0D7F89C30132B6C
:1003DC0012DD02F0BDFF002200211F4803F08EF851
:1003EC00002201211D4803F089F84FF4FA6000F057
:1003FC0065FBFFF7A5FE00BF4FF47A7000F05EFBC3
:10040C0002F0A6FF53E700BF983F0008A83F000882
:10041C00000C0140F45A9172544000085C400008F2
:10042C006440000899A250EC6C400008B83F0008EA
:10043C0078000020C03F0008D03F0008DC3F0008D7
:10044C00E83F0008F03F0008F83F000804400008AF
:10045C0018400008244000083440000844400008BC
:10046C0080B590B000AF07F1180328220021184680
:10047C0003F0F2F83B1D00221A605A609A60DA60B1
:10048C001A610223BB610123BB621023FB620023B0
:10049C007B6307F11803184601F06AFA0346002B38
:1004AC0001D000F00DF90F237B600023BB6000230B
:1004BC00FB6000233B6100237B613B1D0021184640
:1004CC0001F0D8FC0346002B01D000F0F9F800BF76
:1004DC004037BD4680BD000080B500AF124B134ABB
:1004EC001A60114B124A5A600F4B00229A600E4B45
:1004FC000022DA600C4B4FF480421A610A4B002246
:10050C005A61094B00229A61074B0022DA61064BB3
:10051C0000221A62044800F08FFD0346002B01D024
:10052C0000F0CEF800BF80BD8C00002000540040CD
:10053C00A086010080B500AF174B184A1A60164B05
:10054C004FF482725A60144B00229A60124B0022B4
:10055C00DA60114B00221A610F4B00225A610E4BCC
:10056C004FF400729A610C4B0822DA610A4B00229C
:10057C001A62094B00225A62074B00229A62064B00
:10058C000A22DA62044801F003FE0346002B01D074
:10059C0000F096F800BF80BDE0000020003800405D
:1005AC0080B500AF114B124A1A60104B4FF4E13278
:1005BC005A600E4B00229A600C4B0022DA600B4BF7
:1005CC0000221A61094B0C225A61084B00229A61D5
:1005DC00064B0022DA61054802F06FFB0346002B44
:1005EC0001D000F06DF800BF80BD00BF38010020C5
:1005FC000038014080B588B000AF07F1100300222D
:10060C001A605A609A60DA602A4B9B69294A43F057
:10061C0010039361274B9B6903F01003FB60FB688D
:10062C00244B9B69234A43F020039361214B9B6924
:10063C0003F02003BB60BB681E4B9B691D4A43F053
:10064C00040393611B4B9B6903F004037B607B6881
:10065C00184B9B69174A43F008039361154B9B6930
:10066C0003F008033B603B6800224FF40051124832
:10067C0000F0CAFC4FF400533B6101237B61002363
:10068C00BB610223FB6107F1100319460A4800F015
:10069C0037FB01233B6100237B610123BB6107F125
:1006AC0010031946054800F02BFB00BF2037BD4650
:1006BC0080BD00BF00100240001001400008014046
:1006CC0080B400AF72B600BF00BFFDE780B485B048
:1006DC0000AF154B9B69144A43F001039361124B15
:1006EC009B6903F00103BB60BB680F4BDB690E4ACF
:1006FC0043F08053D3610C4BDB6903F080537B6078
:10070C007B680A4B5B68FB60FB6823F0E063FB6073
:10071C00FB6843F00073FB60044AFB68536000BF46
:10072C001437BD4680BC70470010024000000140E9
:10073C0080B588B000AF786007F1100300221A6012
:10074C005A609A60DA607B681B68154A934223D121
:10075C00144B9B69134A43F008039361114B9B693B
:10076C0003F00803FB60FB68C0233B6112237B6131
:10077C000323FB6107F1100319460B4800F0C0FA84
:10078C00084BDB69074A43F40013D361054BDB6963
:10079C0003F40013BB60BB6800BF2037BD4680BDAF
:1007AC000054004000100240000C014080B588B09D
:1007BC0000AF786007F1100300221A605A609A604B
:1007CC00DA607B681B681C4A934231D11B4BDB6996
:1007DC001A4A43F48043D361184BDB6903F480431A
:1007EC00FB60FB68154B9B69144A43F0080393614B
:1007FC00124B9B6903F00803BB60BB684FF42043AA
:10080C003B6102237B610323FB6107F11003194653
:10081C000B4800F075FA4FF480433B6100237B6179
:10082C000023BB6107F110031946054800F068FA74
:10083C0000BF2037BD4680BD00380040001002408C
:10084C00000C014080B588B000AF786007F1100350
:10085C0000221A605A609A60DA607B681B681C4A36
:10086C00934231D11B4B9B691A4A43F480439361E9
:10087C00184B9B6903F48043FB60FB68154B9B6929
:10088C00144A43F004039361124B9B6903F0040375
:10089C00BB60BB684FF400733B6102237B61032395
:1008AC00FB6107F1100319460B4800F029FA4FF4CD
:1008BC0080633B6100237B610023BB6107F1100364
:1008CC001946054800F01CFA00BF2037BD4680BD14
:1008DC0000380140001002400008014080B400AF15
:1008EC0000BFFDE780B400AF00BFFDE780B400AFF0
:1008FC0000BFFDE780B400AF00BFFDE780B400AFE0
:10090C0000BFFDE780B400AF00BFBD4680BC7047A0
:10091C0080B400AF00BFBD4680BC704780B400AF50
:10092C0000BFBD4680BC704780B500AF00F0AAF890
:10093C0000BF80BD80B586B000AF7860144A154BFF
:10094C00D31A7B617B693B61134B1B68002B02D173
:10095C00114B124A1A60104B1A687B6813443A699F
:10096C009A4207D202F080FE03460C221A604FF026
:10097C00FF3309E0084B1B68FB60074B1A687B6868
:10098C001344054A1360FB6818461837BD4680BDF2
:10099C00005000200004000080010020D002002044
:1009AC0080B400AF00BFBD4680BC7047FFF7F8FFB6
:1009BC000B480C490C4A002302E0D458C4500433B1
:1009CC00C4188C42F9D3094A094C002301E0136086
:1009DC000432A242FBD302F04DFEFFF7C7FB704777
:1009EC00000000205C0000202C4100085C0000206E
:1009FC00D0020020FEE7000080B500AF084B1B685A
:100A0C00074A43F010031360032000F041F90F2054
:100A1C0000F008F8FFF75AFE0023184680BD00BF0F
:100A2C000020024080B582B000AF7860124B1A688B
:100A3C00124B1B7819464FF47A73B3FBF1F3B2FBEC
:100A4C00F3F3184600F04FF90346002B01D00123B5
:100A5C000EE07B680F2B0AD8002279684FF0FF302C
:100A6C0000F021F9064A7B681360002300E00123A3
:100A7C0018460837BD4680BD000000200800002045
:100A8C000400002080B400AF054B1B781A46054BC0
:100A9C001B681344034A136000BFBD4680BC7047FB
:100AAC00080000208401002080B400AF024B1B68BA
:100ABC001846BD4680BC70478401002080B584B0C8
:100ACC0000AF7860FFF7F0FFB8607B68FB60FB68F5
:100ADC00B3F1FF3F05D00A4B1B781A46FB68134451
:100AEC00FB6000BFFFF7E0FF0246BB68D31AFA6851
:100AFC009A42F7D800BF00BF1037BD4680BD00BF7B
:100B0C000800002080B485B000AF78607B6803F0EB
:100B1C000703FB600C4BDB68BB60BA684FF6FF0346
:100B2C001340BB60FB681A02BB68134343F0BF63FE
:100B3C0043F40033BB60044ABB68D36000BF143776
:100B4C00BD4680BC704700BF00ED00E080B400AF34
:100B5C00044BDB681B0A03F007031846BD4680BC38
:100B6C00704700BF00ED00E080B483B000AF0346D7
:100B7C003960FB7197F90730002B0ADB3B68DAB25E
:100B8C000C4997F907301201D2B20B4483F80023B9
:100B9C000AE03B68DAB20849FB7903F00F03043B27
:100BAC001201D2B20B441A7600BF0C37BD4680BC82
:100BBC00704700BF00E100E000ED00E080B489B0B8
:100BCC0000AFF860B9607A60FB6803F00703FB6163
:100BDC00FB69C3F10703042B28BF0423BB61FB692A
:100BEC000433062B02D9FB69033B00E000237B6135
:100BFC004FF0FF32BB6902FA03F3DA43BB681A40C9
:100C0C007B699A404FF0FF317B6901FA03F3D943BA
:100C1C007B680B40134318462437BD4680BC704795
:100C2C0080B400AFBFF34F8F00BF064BDB6803F4FB
:100C3C00E0620449044B1343CB60BFF34F8F00BFFA
:100C4C0000BFFDE700ED00E00400FA0580B582B0BE
:100C5C0000AF78607B68013BB3F1807F01D3012347
:100C6C000FE00A4A7B68013B53600F214FF0FF30C5
:100C7C00FFF77AFF054B00229A60044B07221A609B
:100C8C00002318460837BD4680BD00BF10E000E0C9
:100C9C0080B582B000AF78607868FFF733FF00BF93
:100CAC000837BD4680BD80B586B000AF0346B9603D
:100CBC007A60FB7300237B61FFF748FF78617A68E9
:100CCC00B9687869FFF77AFF024697F90F30114639
:100CDC001846FFF749FF00BF1837BD4680BD80B5E9
:100CEC0000AFFFF79DFF80B582B000AF78607868E9
:100CFC00FFF7ACFF034618460837BD4680BD000021
:100D0C0080B48BB000AF7860396000237B62002325
:100D1C003B6269E101227B6A02FA03F3FB613B68E7
:100D2C001B68FA691340BB61BA69FB699A4240F0CF
:100D3C0058813B685B689A4A93425ED0984A9342CA
:100D4C0075D8984A934258D0964A93426FD8964A8F
:100D5C00934252D0944A934269D8944A93424CD0CD
:100D6C00924A934263D8924A934246D0904A934215
:100D7C005DD8122B2AD8122B59D801A252F823F085
:100D8C00070E0008E10D0008F30D0008350E0008F1
:100D9C003B0E00083B0E00083B0E00083B0E000803
:100DAC003B0E00083B0E00083B0E00083B0E0008F3
:100DBC003B0E00083B0E00083B0E00083B0E0008E3
:100DCC003B0E0008E90D0008FD0D0008794A93421E
:100DDC0013D02CE03B68DB683B6229E03B68DB68A6
:100DEC0004333B6224E03B68DB6808333B621FE062
:100DFC003B68DB680C333B621AE03B689B68002B5A
:100E0C0002D104233B6213E03B689B68012B05D1A4
:100E1C0008233B627B68FA691A6109E008233B628C
:100E2C007B68FA695A6103E000233B6200E000BF73
:100E3C00BB69FF2B01D87B6801E07B6804337B61C5
:100E4C00BB69FF2B02D87B6A9B0002E07B6A083BE4
:100E5C009B003B617B691A680F213B6901FA03F324
:100E6C00DB431A40396A3B6901FA03F31A437B6985
:100E7C001A603B685B6803F08053002B00F0B18074
:100E8C004D4B9B694C4A43F0010393614A4B9B6960
:100E9C0003F00103BB60BB68484A7B6A9B080233C2
:100EAC0052F82330FB607B6A03F003039B000F2294
:100EBC0002FA03F3DB43FA681340FB607B68404A99
:100ECC00934213D07B683F4A93420DD07B683E4AD5
:100EDC00934207D07B683D4A934201D1032306E03D
:100EEC00042304E0022302E0012300E000237A6AD9
:100EFC0002F0030292009340FA681343FB602F49FF
:100F0C007B6A9B080233FA6841F823203B685B68D4
:100F1C0003F48013002B06D02D4B9A682C49BB6927
:100F2C0013438B6006E02A4B9A68BB69DB43284964
:100F3C0013408B603B685B6803F40013002B06D0F6
:100F4C00234BDA682249BB691343CB6006E0204B84
:100F5C00DA68BB69DB431E491340CB603B685B68B6
:100F6C0003F40033002B06D0194B5A681849BB699F
:100F7C0013434B6006E0164B5A68BB69DB431449BC
:100F8C0013404B603B685B6803F48033002B21D02B
:100F9C000F4B1A680E49BB6913430B6021E000BF6D
:100FAC00000032100000311000002210000021104F
:100FBC00000012100000111000100240000001404F
:100FCC0000080140000C01400010014000140140D9
:100FDC00000401400B4B1A68BB69DB430949134001
:100FEC000B607B6A01337B623B681A687B6A22FA6E
:100FFC0003F3002B7FF48EAE00BF00BF2C37BD4631
:10100C0080BC70470004014080B483B000AF7860AE
:10101C000B467B8013467B707B78002B03D07A8841
:10102C007B681A6103E07B881A047B681A6100BF35
:10103C000C37BD4680BC704780B584B000AF78607B
:10104C007B68002B01D101232BE17B6893F83D30A9
:10105C00DBB2002B06D17B68002283F83C20786839
:10106C00FFF766FB7B68242283F83D207B681B68B6
:10107C001A687B681B6822F001021A607B681B6887
:10108C001A687B681B6842F400421A607B681B6814
:10109C001A687B681B6822F400421A6001F032F86F
:1010AC00F8607B685B68814A934207D8FB68804A8A
:1010BC00934294BF01230023DBB206E0FB687D4A18
:1010CC00934294BF01230023DBB2002B01D00123F8
:1010DC00E7E0FB68784AA2FB03239B0CBB607B68B0
:1010EC001B685B6823F03F017B681B68BA680A4386
:1010FC005A607B681B681B6A23F03F017B685B6846
:10110C006A4A934202D8BB68013309E0BB684FF4CA
:10111C00967202FB03F3694AA2FB03239B0901337A
:10112C007A6812680B4313627B681B68DB6923F4D3
:10113C004F4222F0FF027B685B685C498B4219D8F6
:10114C00FB68591E7B685B685B00B1FBF3F3591CB1
:10115C0040F6FC730B40002B0AD0FB68591E7B68D1
:10116C005B685B00B1FBF3F30133C3F30B0351E09A
:10117C0004234FE07B689B68002B11D1FB68581E41
:10118C007B6859680B465B000B44B0FBF3F30133EF
:10119C00C3F30B03002B0CBF01230023DBB212E0C3
:1011AC00FB68581E7B6859680B469B000B449900E2
:1011BC000B44B0FBF3F30133C3F30B03002B0CBF55
:1011CC0001230023DBB2002B01D0012322E07B683A
:1011DC009B68002B0ED1FB68581E7B6859680B4628
:1011EC005B000B44B0FBF3F30133C3F30B0343F489
:1011FC0000430FE0FB68581E7B6859680B469B0048
:10120C000B4499000B44B0FBF3F30133C3F30B0312
:10121C0043F44043796809681343CB617B681B68CE
:10122C001B6823F0C0017B68DA697B681B6A1A4370
:10123C007B681B680A431A607B681B689B6823F4F5
:10124C00034323F0FF037A6811697A68D26811436B
:10125C007A6812680B4393607B681B68DB6823F029
:10126C00FF017B685A697B689B691A437B681B6822
:10127C000A43DA607B681B681A687B681B6842F05B
:10128C0001021A607B6800221A647B68202283F8B2
:10129C003D207B6800221A637B68002283F83E2085
:1012AC00002318461037BD4680BD00BFA086010044
:1012BC007F841E00FF083D0083DE1B43D34D62106C
:1012CC0080B588B002AFF8607A601A460B467B8115
:1012DC0013463B81FFF7E8FB7861FB6893F83D30E0
:1012EC00DBB2202B40F0E0807B69009319230122B4
:1012FC007049F86800F064F90346002B01D0022312
:10130C00D3E0FB6893F83C30012B01D10223CCE0F5
:10131C00FB68012283F83C20FB681B681B6803F008
:10132C000103012B07D0FB681B681A68FB681B685C
:10133C0042F001021A60FB681B681A68FB681B68A4
:10134C0022F400621A60FB68212283F83D20FB68BE
:10135C00102283F83E20FB6800221A64FB687A682E
:10136C005A62FB683A895A85FB685B8D9AB2FB68B6
:10137C001A85FB68504ADA6279897B693A6AF8689F
:10138C0000F09CF80346002B01D001238DE00023D4
:10139C003B61FB681B685B693B61FB681B689B6975
:1013AC003B613B6966E07A69396AF86800F022FAB9
:1013BC000346002B0DD0FB681B6C042B07D1FB687C
:1013CC001B681A68FB681B6842F400721A600123E0
:1013DC006BE0FB685B6A1A78FB681B681A61FB6838
:1013EC005B6A5A1CFB685A62FB685B8D9BB2013BC3
:1013FC009AB2FB685A85FB681B8D013B9AB2FB685D
:10140C001A85FB681B685B6903F00403042B1BD172
:10141C00FB681B8D002B17D0FB685B6A1A78FB6886
:10142C001B681A61FB685B6A5A1CFB685A62FB6892
:10143C005B8D9BB2013B9AB2FB685A85FB681B8D96
:10144C00013B9AB2FB681A857A69396AF86800F030
:10145C0019FA0346002B0DD0FB681B6C042B07D12B
:10146C00FB681B681A68FB681B6842F400721A6000
:10147C0001231AE0FB681B8D002B94D1FB681B68C1
:10148C001A68FB681B6842F400721A60FB68202221
:10149C0083F83D20FB68002283F83E20FB68002285
:1014AC0083F83C20002300E0022318461837BD4681
:1014BC0080BD00BF020010000000FFFF80B588B0A7
:1014CC0002AFF8607A603B600B467B81FB68DB6A9D
:1014DC007B617B69082B06D07B69012B03D07B6970
:1014EC0013F5803F08D1FB681B681A68FB681B6802
:1014FC0042F480721A600BE0FB681B6B122B07D155
:10150C00FB681B681A68FB681B6842F480721A60DF
:10151C003B6800937B6800224FF00111F86800F0E3
:10152C004FF80346002B0DD0FB681B681B6803F4B7
:10153C008073B3F5807F03D1FB684FF400721A649B
:10154C00032335E0FB681B69B3F5804F08D17B8919
:10155C00DBB21A46FB681B6802F0FE021A611BE044
:10156C007B89DB11DBB203F00603DBB263F00F0304
:10157C00DAB2FB681B681A613B687A680E49F86836
:10158C0000F098F80346002B01D0012310E07B8972
:10159C00DAB2FB681B681A613B687A680749F8681D
:1015AC0000F088F80346002B01D0012300E0002353
:1015BC0018461837BD4680BD080001000200010026
:1015CC0080B584B000AFF860B9603B601346FB7126
:1015DC0048E03B68B3F1FF3F44D0FFF765FA0246A1
:1015EC00BB69D31A3A689A4202D33B68002B39D1B3
:1015FC00BB681B0CDBB2012B0DD1FB681B685B6954
:10160C00DA43BB6813409BB2002B0CBF01230023B1
:10161C00DBB21A460CE0FB681B689B69DA43BB68BB
:10162C0013409BB2002B0CBF01230023DBB21A46E4
:10163C00FB799A4216D1FB6800221A63FB682022C0
:10164C0083F83D20FB68002283F83E20FB681B6C6E
:10165C0043F02002FB681A64FB68002283F83C20EC
:10166C00012323E0BB681B0CDBB2012B0DD1FB6803
:10167C001B685B69DA43BB6813409BB2002B0CBF41
:10168C0001230023DBB21A460CE0FB681B689B6944
:10169C00DA43BB6813409BB2002B0CBF0123002321
:1016AC00DBB21A46FB799A4293D0002318461037C6
:1016BC00BD4680BD80B584B000AFF860B9607A607B
:1016CC003B6071E0FB681B685B6903F48063B3F5F6
:1016DC00806F23D1FB681B681A68FB681B6842F497
:1016EC0000721A60FB681B686FF480625A61FB68B9
:1016FC0000221A63FB68202283F83D20FB6800223D
:10170C0083F83E20FB681B6C43F00402FB681A64F0
:10171C00FB68002283F83C20012367E07B68B3F16F
:10172C00FF3F41D0FFF7C0F902463B68D31A7A68F5
:10173C009A4202D37B68002B36D1BB681B0CDBB200
:10174C00012B0CD1FB681B685B69DA43BB68134047
:10175C009BB2002B14BF01230023DBB20BE0FB6810
:10176C001B689B69DA43BB6813409BB2002B14BF08
:10177C0001230023DBB2002B16D0FB6800221A6376
:10178C00FB68202283F83D20FB68002283F83E2072
:10179C00FB681B6C43F02002FB681A64FB68002298
:1017AC0083F83C20012321E0BB681B0CDBB2012B2E
:1017BC000CD1FB681B685B69DA43BB6813409BB2B6
:1017CC00002B14BF01230023DBB20BE0FB681B686A
:1017DC009B69DA43BB6813409BB2002B14BF0123F7
:1017EC000023DBB2002B7FF46DAF002318461037BB
:1017FC00BD4680BD80B584B000AFF860B9607A603A
:10180C0034E0F86800F086F80346002B01D0012381
:10181C0034E0BB68B3F1FF3F28D0FFF745F902462F
:10182C007B68D31ABA689A4202D3BB68002B1DD1CD
:10183C00FB681B685B6903F08003802B16D0FB6888
:10184C0000221A63FB68202283F83D20FB680022EB
:10185C0083F83E20FB681B6C43F02002FB681A6483
:10186C00FB68002283F83C20012307E0FB681B681F
:10187C005B6903F08003802BC3D10023184610371B
:10188C00BD4680BD80B584B000AFF860B9607A60A9
:10189C0034E0F86800F03EF80346002B01D0012339
:1018AC0034E0BB68B3F1FF3F28D0FFF7FDF80246E8
:1018BC007B68D31ABA689A4202D3BB68002B1DD13D
:1018CC00FB681B685B6903F00403042B16D0FB68F0
:1018DC0000221A63FB68202283F83D20FB6800225B
:1018EC0083F83E20FB681B6C43F02002FB681A64F3
:1018FC00FB68002283F83C20012307E0FB681B688F
:10190C005B6903F00403042BC3D100231846103782
:10191C00BD4680BD80B483B000AF78607B681B6827
:10192C005B6903F48063B3F5806F1BD17B681B6824
:10193C006FF480625A617B6800221A637B682022F4
:10194C0083F83D207B68002283F83E207B681B6C6B
:10195C0043F004027B681A647B68002283F83C2005
:10196C00012300E0002318460C37BD4680BC7047AD
:10197C0080B586B000AF78607B68002B01D1012365
:10198C0072E27B681B6803F00103002B00F0878078
:10199C00924B5B6803F00C03042B0CD08F4B5B68F1
:1019AC0003F00C03082B12D18C4B5B6803F48033CF
:1019BC00B3F5803F0BD1894B1B6803F40033002B2C
:1019CC006CD07B685B68002B68D101234CE27B6890
:1019DC005B68B3F5803F06D1804B1B687F4A43F4AC
:1019EC00803313602EE07B685B68002B0CD17B4B43
:1019FC001B687A4A23F480331360784B1B68774A50
:101A0C0023F4802313601DE07B685B68B3F5A02F83
:101A1C000CD1724B1B68714A43F4802313606F4BDB
:101A2C001B686E4A43F4803313600BE06B4B1B68EE
:101A3C006A4A23F480331360684B1B68674A23F4AB
:101A4C00802313607B685B68002B13D0FFF72CF8A6
:101A5C00386108E0FFF728F802463B69D31A642B7B
:101A6C0001D9032300E25D4B1B6803F40033002B08
:101A7C00F0D014E0FFF718F8386108E0FFF714F81D
:101A8C0002463B69D31A642B01D90323ECE1534B77
:101A9C001B6803F40033002BF0D100E000BF7B681F
:101AAC001B6803F00203002B63D04C4B5B6803F004
:101ABC000C03002B0BD0494B5B6803F00C03082B79
:101ACC001CD1464B5B6803F48033002B16D1434B7F
:101ADC001B6803F00203002B05D07B681B69012BEC
:101AEC0001D00123C0E13D4B1B6823F0F8027B6859
:101AFC005B69DB00394913430B603AE07B681B6977
:101B0C00002B20D0364B01221A60FEF7CDFF386136
:101B1C0008E0FEF7C9FF02463B69D31A022B01D934
:101B2C000323A1E12D4B1B6803F00203002BF0D023
:101B3C002A4B1B6823F0F8027B685B69DB002749A2
:101B4C0013430B6015E0264B00221A60FEF7ACFF26
:101B5C00386108E0FEF7A8FF02463B69D31A022B56
:101B6C0001D9032380E11D4B1B6803F00203002BFA
:101B7C00F0D17B681B6803F00803002B3AD07B681C
:101B8C009B69002B19D0174B01221A60FEF78CFFB2
:101B9C00386108E0FEF788FF02463B69D31A022B36
:101BAC0001D9032360E10D4B5B6A03F00203002BA8
:101BBC00F0D0012000F0CEFA1CE00A4B00221A6093
:101BCC00FEF772FF38610FE0FEF76EFF02463B69CD
:101BDC00D31A022B08D9032346E100BF00100240A0
:101BEC000000424280044242924B5B6A03F00203C3
:101BFC00002BE9D17B681B6803F00403002B00F079
:101C0C00A6800023FB758B4BDB6903F08053002B04
:101C1C000DD1884BDB69874A43F08053D361854BE8
:101C2C00DB6903F08053BB60BB680123FB75824BFF
:101C3C001B6803F48073002B18D17F4B1B687E4A02
:101C4C0043F480731360FEF72FFF386108E0FEF752
:101C5C002BFF02463B69D31A642B01D9032303E102
:101C6C00754B1B6803F48073002BF0D07B68DB682A
:101C7C00012B06D16F4B1B6A6E4A43F001031362B2
:101C8C002DE07B68DB68002B0CD16A4B1B6A694A20
:101C9C0023F001031362674B1B6A664A23F00403AB
:101CAC0013621CE07B68DB68052B0CD1614B1B6A53
:101CBC00604A43F0040313625E4B1B6A5D4A43F0B7
:101CCC00010313620BE05B4B1B6A5A4A23F00103BE
:101CDC001362584B1B6A574A23F0040313627B6848
:101CEC00DB68002B15D0FEF7DFFE38610AE0FEF74B
:101CFC00DBFE02463B69D31A41F28832934201D98A
:101D0C000323B1E04B4B1B6A03F00203002BEED014
:101D1C0014E0FEF7C9FE38610AE0FEF7C5FE024684
:101D2C003B69D31A41F28832934201D903239BE0D9
:101D3C00404B1B6A03F00203002BEED1FB7D012B01
:101D4C0005D13C4BDB693B4A23F08053D3617B6864
:101D5C00DB69002B00F08780364B5B6803F00C03CB
:101D6C00082B61D07B68DB69022B46D1334B0022F8
:101D7C001A60FEF799FE386108E0FEF795FE024600
:101D8C003B69D31A022B01D903236DE0294B1B6845
:101D9C0003F00073002BF0D17B681B6AB3F5803F16
:101DAC0008D1244B5B6823F400327B689B68214983
:101DBC0013434B601F4B5B6823F474127B68196AE6
:101DCC007B685B6A0B431B4913434B601B4B012223
:101DDC001A60FEF769FE386108E0FEF765FE024600
:101DEC003B69D31A022B01D903233DE0114B1B682D
:101DFC0003F00073002BF0D035E0104B00221A607A
:101E0C00FEF752FE386108E0FEF74EFE02463B69D3
:101E1C00D31A022B01D9032326E0064B1B6803F0CF
:101E2C000073002BF0D11EE07B68DB69012B07D11E
:101E3C00012319E000100240007000406000424293
:101E4C000B4B5B68FB60FB6803F480327B681B6A9E
:101E5C009A4206D1FB6803F470127B685B6A9A4263
:101E6C0001D0012300E0002318461837BD4680BD81
:101E7C000010024080B584B000AF786039607B6898
:101E8C00002B01D10123D0E06A4B1B6803F0070340
:101E9C003A689A4210D9674B1B6823F007026549D0
:101EAC003B6813430B60634B1B6803F007033A68F2
:101EBC009A4201D00123B8E07B681B6803F002034F
:101ECC00002B20D07B681B6803F00403002B05D08B
:101EDC00594B5B68584A43F4E06353607B681B685A
:101EEC0003F00803002B05D0534B5B68524A43F4B4
:101EFC0060535360504B5B6823F0F0027B689B6827
:101F0C004D4913434B607B681B6803F00103002BA6
:101F1C0040D07B685B68012B07D1474B1B6803F4EF
:101F2C000033002B15D101237FE07B685B68022B0B
:101F3C0007D1414B1B6803F00073002B09D101231F
:101F4C0073E03D4B1B6803F00203002B01D101230E
:101F5C006BE0394B5B6823F003027B685B683649A6
:101F6C0013434B60FEF7A0FDF8600AE0FEF79CFD02
:101F7C000246FB68D31A41F28832934201D90323FB
:101F8C0053E02D4B5B6803F00C027B685B689B0095
:101F9C009A42EBD1274B1B6803F007033A689A422D
:101FAC0010D2244B1B6823F0070222493B681343D1
:101FBC000B60204B1B6803F007033A689A4201D070
:101FCC00012332E07B681B6803F00403002B08D06C
:101FDC00194B5B6823F4E0627B68DB68164913439A
:101FEC004B607B681B6803F00803002B09D0124B75
:101FFC005B6823F460527B681B69DB000E4913435A
:10200C004B6000F021F802460B4B5B681B0903F098
:10201C000F030A49CB5C22FA03F3094A1360094BFC
:10202C001B681846FEF7FEFC002318461037BD4609
:10203C0080BD00BF00200240001002407440000828
:10204C00000000200400002080B487B000AF002303
:10205C00FB600023BB6000237B6100237B600023BB
:10206C003B611E4B5B68FB60FB6803F00C03042BAD
:10207C0002D0082B03D027E0194B3B6127E0FB680B
:10208C009B0C03F00F03174AD35C7B60FB6803F4D3
:10209C008033002B10D0114B5B685B0C03F00103F9
:1020AC00114AD35CBB607B680D4A03FB02F2BB6830
:1020BC00B2FBF3F37B6104E07B680C4A02FB03F395
:1020CC007B617B693B6102E0054B3B6100BF3B6977
:1020DC0018461C37BD4680BC704700BF001002403C
:1020EC0000127A008C4000089C40000800093D005A
:1020FC0080B400AF024B1B681846BD4680BC7047CD
:10210C000000002080B500AFFFF7F2FF0246054B40
:10211C005B681B0A03F007030349CB5C22FA03F349
:10212C00184680BD001002408440000880B500AF06
:10213C00FFF7DEFF0246054B5B68DB0A03F0070383
:10214C000349CB5C22FA03F3184680BD0010024011
:10215C008440000880B485B000AF78600A4B1B68DF
:10216C000A4AA2FB03235B0A7A6802FB03F3FB60B7
:10217C0000BFFB685A1EFA60002BF9D100BF00BFEC
:10218C001437BD4680BC704700000020D34D621050
:10219C0080B582B000AF78607B68002B01D1012341
:1021AC0076E07B685B6A002B08D17B685B68B3F5D3
:1021BC00827F09D07B680022DA6105E07B6800220F
:1021CC001A617B6800225A617B6800229A627B68E4
:1021DC0093F85130DBB2002B06D17B68002283F8D8
:1021EC0050207868FEF7E2FA7B68022283F85120CF
:1021FC007B681B681A687B681B6822F040021A60B7
:10220C007B685B6803F482727B689B6803F404430D
:10221C001A437B68DB6803F400631A437B681B6911
:10222C0003F002031A437B685B6903F001031A4352
:10223C007B689B6903F400731A437B68DB6903F0CA
:10224C0038031A437B681B6A03F0800342EA0301DC
:10225C007B689B6A03F400527B681B680A431A6014
:10226C007B689B691A0C7B681B6802F004025A603D
:10227C007B681B68DA697B681B6822F40062DA6190
:10228C007B6800225A657B68012283F85120002369
:10229C0018460837BD4680BD80B588B000AFF860E1
:1022AC00B9603B601346FB80FEF7FEFBF861FB88D0
:1022BC007B83FB6893F85130DBB2012B01D00223F6
:1022CC002AE1BB68002B02D0FB88002B01D1012333
:1022DC0022E1FB6893F85030012B01D102231BE162
:1022EC00FB68012283F85020FB68032283F85120FD
:1022FC00FB6800225A65FB68BA681A63FB68FA88A7
:10230C009A86FB68FA88DA86FB6800229A63FB6877
:10231C0000229A87FB680022DA87FB6800225A6445
:10232C00FB6800221A64FB689B68B3F5004F0FD161
:10233C00FB681B681A68FB681B6822F040021A6075
:10234C00FB681B681A68FB681B6842F480421A60C1
:10235C00FB681B681B6803F04003402B07D0FB682D
:10236C001B681A68FB681B6842F040021A60FB6825
:10237C00DB68B3F5006F52D1FB685B68002B02D0B1
:10238C007B8B012B45D1FB681B6B1A88FB681B6888
:10239C00DA60FB681B6B9A1CFB681A63FB68DB8EAC
:1023AC009BB2013B9AB2FB68DA8632E0FB681B6891
:1023BC009B6803F00203022B12D1FB681B6B1A887B
:1023CC00FB681B68DA60FB681B6B9A1CFB681A6362
:1023DC00FB68DB8E9BB2013B9AB2FB68DA8618E095
:1023EC00FEF762FB0246FB69D31A3A689A4203D89D
:1023FC003B68B3F1FF3F02D13B68002B09D1FB686E
:10240C00012283F85120FB68002283F8502003231B
:10241C0082E0FB68DB8E9BB2002BC7D153E0FB68DC
:10242C005B68002B02D07B8B012B47D1FB681A6BAE
:10243C00FB681B680C3312781A70FB681B6B5A1CF8
:10244C00FB681A63FB68DB8E9BB2013B9AB2FB689C
:10245C00DA8633E0FB681B689B6803F00203022BEF
:10246C0013D1FB681A6BFB681B680C3312781A705B
:10247C00FB681B6B5A1CFB681A63FB68DB8E9BB2F8
:10248C00013B9AB2FB68DA8618E0FEF70DFB0246B8
:10249C00FB69D31A3A689A4203D83B68B3F1FF3F01
:1024AC0002D13B68002B09D1FB68012283F8512033
:1024BC00FB68002283F8502003232DE0FB68DB8EA1
:1024CC009BB2002BC6D1FA693968F86800F0C4FBDE
:1024DC000346002B02D0FB6820225A65FB689B68E0
:1024EC00002B0AD100237B61FB681B68DB687B61D6
:1024FC00FB681B689B687B617B69FB68012283F826
:10250C005120FB68002283F85020FB685B6D002B88
:10251C0001D0012300E0002318462037BD4680BDC2
:10252C0080B588B002AFF860B9603B601346FB80A1
:10253C00FB6893F85130DBB2012B01D0022304E18C
:10254C00FB685B68B3F5827F12D1FB689B68002B3C
:10255C000ED1FB68042283F85120FA883B68009363
:10256C001346BA68B968F86800F0F3F80346ECE073
:10257C00FEF79AFA7861BB68002B02D0FB88002B1F
:10258C0001D10123E1E0FB6893F85030012B01D11C
:10259C000223DAE0FB68012283F85020FB68042256
:1025AC0083F85120FB6800225A65FB68BA689A636D
:1025BC00FB68FA889A87FB68FA88DA87FB6800223E
:1025CC001A63FB6800229A86FB680022DA86FB6895
:1025DC0000221A64FB6800225A64FB689B68B3F5FE
:1025EC00004F0FD1FB681B681A68FB681B6822F050
:1025FC0040021A60FB681B681A68FB681B6822F4AF
:10260C0080421A60FB681B681B6803F04003402B78
:10261C0007D0FB681B681A68FB681B6842F0400215
:10262C001A60FB68DB68002B70D135E0FB681B6817
:10263C009B6803F00103012B15D1FB681B6803F1A8
:10264C000C02FB689B6B1278D2B21A70FB689B6B06
:10265C005A1CFB689A63FB68DB8F9BB2013B9AB2F6
:10266C00FB68DA8718E0FEF71FFA02467B69D31A7B
:10267C003A689A4203D83B68B3F1FF3F02D13B68FA
:10268C00002B09D1FB68012283F85120FB68002242
:10269C0083F85020032358E0FB68DB8F9BB2002BA0
:1026AC00C4D138E0FB681B689B6803F00103012B65
:1026BC0013D1FB681B68DA68FB689B6B92B21A80BB
:1026CC00FB689B6B9A1CFB689A63FB68DB8F9BB265
:1026DC00013B9AB2FB68DA8718E0FEF7E5F902468F
:1026EC007B69D31A3A689A4203D83B68B3F1FF3F2F
:1026FC0002D13B68002B09D1FB68012283F85120E1
:10270C00FB68002283F8502003231EE0FB68DB8F5C
:10271C009BB2002BC6D17A693968F86800F04AFA86
:10272C000346002B02D0FB6820225A65FB6801226D
:10273C0083F85120FB68002283F85020FB685B6D06
:10274C00002B01D0012300E0002318461837BD46AA
:10275C0080BD80B58AB000AFF860B9607A607B80CC
:10276C0001237B62FEF7A0F93862FB6893F85130C5
:10277C00FB77FB685B68BB617B88FB82FB7F012B73
:10278C000CD0BB69B3F5827F06D1FB689B68002B2C
:10279C0002D1FB7F042B01D002237FE1BB68002B0D
:1027AC0005D07B68002B02D07B88002B01D1012344
:1027BC0074E1FB6893F85030012B01D102236DE1D9
:1027CC00FB68012283F85020FB6893F85130DBB290
:1027DC00042B03D0FB68052283F85120FB680022F0
:1027EC005A65FB687A689A63FB687A88DA87FB68B3
:1027FC007A889A87FB68BA681A63FB687A88DA86E3
:10280C00FB687A889A86FB6800221A64FB680022AF
:10281C005A64FB681B681B6803F04003402B07D00D
:10282C00FB681B681A68FB681B6842F040021A6060
:10283C00FB68DB68B3F5006F7ED1FB685B68002B2F
:10284C0002D0FB8A012B6CD1FB681B6B1A88FB68CE
:10285C001B68DA60FB681B6B9A1CFB681A63FB68CD
:10286C00DB8E9BB2013B9AB2FB68DA8659E0FB68BF
:10287C001B689B6803F00203022B1BD1FB68DB8EE9
:10288C009BB2002B16D07B6A012B13D1FB681B6B00
:10289C001A88FB681B68DA60FB681B6B9A1CFB6868
:1028AC001A63FB68DB8E9BB2013B9AB2FB68DA863B
:1028BC0000237B62FB681B689B6803F00103012B00
:1028CC0019D1FB68DB8F9BB2002B14D0FB681B6803
:1028DC00DA68FB689B6B92B21A80FB689B6B9A1C44
:1028EC00FB689A63FB68DB8F9BB2013B9AB2FB6877
:1028FC00DA8701237B62FEF7D7F802463B6AD31ACC
:10290C003A6B9A420DD83B6BB3F1FF3F09D0FB6891
:10291C00012283F85120FB68002283F85020032306
:10292C00BCE0FB68DB8E9BB2002BA0D1FB68DB8F7D
:10293C009BB2002B9BD182E0FB685B68002B02D022
:10294C00FB8A012B71D1FB681A6BFB681B680C337B
:10295C0012781A70FB681B6B5A1CFB681A63FB68B5
:10296C00DB8E9BB2013B9AB2FB68DA865DE0FB68BA
:10297C001B689B6803F00203022B1CD1FB68DB8EE7
:10298C009BB2002B17D07B6A012B14D1FB681A6BFE
:10299C00FB681B680C3312781A70FB681B6B5A1C93
:1029AC00FB681A63FB68DB8E9BB2013B9AB2FB6837
:1029BC00DA8600237B62FB681B689B6803F00103CB
:1029CC00012B19D1FB68DB8F9BB2002B14D0FB6859
:1029DC001B68DA68FB689B6BD2B21A70FB689B6B46
:1029EC005A1CFB689A63FB68DB8F9BB2013B9AB263
:1029FC00FB68DA8701237B62FEF756F802463B6AD6
:102A0C00D31A3A6B9A4203D83B6BB3F1FF3F02D116
:102A1C003B6B002B09D1FB68012283F85120FB682A
:102A2C00002283F85020032338E0FB68DB8E9BB236
:102A3C00002B9CD1FB68DB8F9BB2002B97D13A6AA1
:102A4C00396BF86800F008F90346002B08D0FB68D6
:102A5C0020225A65FB68002283F8502001231DE0D8
:102A6C00FB689B68002B0AD100233B61FB681B6849
:102A7C00DB683B61FB681B689B683B613B69FB68DF
:102A8C00012283F85120FB68002283F85020FB6858
:102A9C005B6D002B01D0012300E000231846283782
:102AAC00BD4680BD80B588B000AFF860B9603B60B2
:102ABC001346FB71FDF7F8FF0246BB6A9B1A3A6896
:102ACC001344FB61FDF7F0FFB861394B1B685B01E8
:102ADC001B0DFA6902FB03F37B6154E03B68B3F115
:102AEC00FF3F50D0FDF7E0FF0246BB69D31AFA69ED
:102AFC009A4202D9FB69002B3DD1FB681B685A68CE
:102B0C00FB681B6822F0E0025A60FB685B68B3F557
:102B1C00827F11D1FB689B68B3F5004F04D0FB6832
:102B2C009B68B3F5806F07D1FB681B681A68FB685C
:102B3C001B6822F040021A60FB689B6AB3F5005FC9
:102B4C000FD1FB681B681A68FB681B6822F40052E3
:102B5C001A60FB681B681A68FB681B6842F4005219
:102B6C001A60FB68012283F85120FB68002283F86D
:102B7C005020032317E07B69002B01D10023FB615C
:102B8C007B69013B7B61FB681B689A68BB681340DF
:102B9C00BA689A420CBF01230023DBB21A46FB79B8
:102BAC009A429BD1002318462037BD4680BD00BFFA
:102BBC000000002080B586B002AFF860B9607A6082
:102BCC00FB685B68B3F5827F11D1FB689B68B3F53A
:102BDC00004F04D0FB689B68B3F5806F07D1FB688E
:102BEC001B681A68FB681B6822F040021A60FB68BD
:102BFC005B68B3F5827F17D1FB689B68B3F5806F78
:102C0C0012D17B680093BB6800220121F868FFF7A2
:102C1C0049FF0346002B1AD0FB685B6D43F0200282
:102C2C00FB685A65032313E07B680093BB680022A2
:102C3C008021F868FFF736FF0346002B07D0FB68AE
:102C4C005B6D43F02002FB685A65032300E0002310
:102C5C0018461037BD4680BD80B586B002AFF8600F
:102C6C00B9607A607B680093BB6801220221F86826
:102C7C00FFF718FF0346002B07D0FB685B6D43F092
:102C8C002002FB685A65032313E07B680093BB6842
:102C9C0000228021F868FFF705FF0346002B07D0C0
:102CAC00FB685B6D43F02002FB685A65032300E070
:102CBC00002318461037BD4680BD80B582B000AFEA
:102CCC0078607B68002B01D1012342E07B6893F88C
:102CDC004130DBB2002B06D17B68002283F8402008
:102CEC007868FDF7AFFD7B68242283F841207B6870
:102CFC001B68DA687B681B6822F40052DA6078681B
:102D0C0000F02CF87B681B681A697B681B6822F43E
:102D1C0090421A617B681B685A697B681B6822F0B9
:102D2C002A025A617B681B68DA687B681B6842F46C
:102D3C000052DA607B6800225A647B68202283F898
:102D4C0041207B68202283F842207B6800225A6352
:102D5C00002318460837BD4680BD000080B584B0FE
:102D6C0000AF78607B681B681B6923F440517B685B
:102D7C00DA687B681B680A431A617B689A687B680F
:102D8C001B691A437B685B691343BB607B681B68D8
:102D9C00DB6823F4B05323F00C037A681268B9682B
:102DAC000B43D3607B681B685B6923F440717B68C1
:102DBC009A697B681B680A435A617B681B682C4ABA
:102DCC00934203D1FFF7B2F9F86002E0FFF79AF9EA
:102DDC00F860FA6813469B0013449A001A447B6807
:102DEC005B689B00B2FBF3F3224AA2FB03235B0953
:102DFC001901FA6813469B0013449A001A447B6825
:102E0C005B689B00B2FBF3F21A4BA3FB02035B095A
:102E1C00642000FB03F3D31A1B013233154AA2FBC7
:102E2C0003235B0903F0F0031944FA6813469B0073
:102E3C0013449A001A447B685B689B00B2FBF3F264
:102E4C000C4BA3FB02035B09642000FB03F3D31AB6
:102E5C001B013233074AA2FB03235B0903F00F0269
:102E6C007B681B680A449A6000BF1037BD4680BD62
:102E7C00003801401F85EB5180B584B000AF03468C
:102E8C000A46FB711346BB71FB795B00DBB203F0A6
:102E9C007E03DBB2FB7300224FF400610D48FEF79A
:102EAC00B3F807F10F014FF4FA7301220A48FFF748
:102EBC00F3F9B91D4FF4FA7301220748FFF7ECF947
:102ECC0001224FF400610348FEF79EF800BF103753
:102EDC00BD4680BD000C0140E000002080B584B0F0
:102EEC0000AF0346FB7197F907305B005BB203F050
:102EFC007E035BB263F07F035BB2DBB2BB73002279
:102F0C004FF400610E48FEF77FF807F10E014FF405
:102F1C00FA7301220B48FFF7BFF907F10F014FF4C9
:102F2C00FA7301220748FFF7FBFA01224FF4006104
:102F3C000348FEF769F8FB7B18461037BD4680BD89
:102F4C00000C0140E000002080B584B000AF0346C7
:102F5C000A46FB711346BB71FB791846FFF7BEFF9F
:102F6C000346FB73FA7BBB791343DAB2FB79114648
:102F7C001846FFF781FF00BF1037BD4680BD80B5F6
:102F8C0084B000AF03460A46FB711346BB71FB7954
:102F9C001846FFF7A3FF0346FB7397F90630DB4394
:102FAC005AB297F90F3013405BB2DAB2FB79114683
:102FBC001846FFF761FF00BF1037BD4680BD80B5D6
:102FCC0082B000AF1420FFF789FF0346FB71FB7939
:102FDC0003F00303002B03D103211420FFF7B4FFEC
:102FEC0000BF0837BD4680BD80B500AF0F21012062
:102FFC00FFF742FF00BF80BD80B500AFFFF7F4FFC5
:10300C0080212A20FFF738FFA9212B20FFF734FF5E
:10301C0003212D20FFF730FFE8212C20FFF72CFF98
:10302C0040211520FFF728FF3D211120FFF724FF39
:10303C00FFF7C5FF00BF80BD80B586B002AF034669
:10304C003960FB7107210D20FFF716FF3B68FA79F9
:10305C001A7007F1080300933B68012239680C20B1
:10306C0000F00FF80346FB73FB7B002B02D1BB680F
:10307C00102B01D00223FB73FB7B18461037BD4687
:10308C0080BD90B589B000AFB9607B600346FB731F
:10309C001346BB730223FB770023BB7700237B779C
:1030AC00FB7B0C2B06D00E2B09D11223BB771023E4
:1030BC007B7705E07723BB7730237B7700E000BF7D
:1030CC00BB7F63F07F03DBB219460220FFF7D4FE0F
:1030DC0080210420FFF753FF80210A20FFF734FFE3
:1030EC0000210120FFF7C8FE0023BB610AE0BA688B
:1030FC00BB6913441B7819460920FFF7BDFEBB6959
:10310C000133BB61BB7BBA699A42F0D3FB7B194696
:10311C000120FFF7B1FEFB7B0C2B03D180210D208E
:10312C00FFF712FF4FF4FA63BB610420FFF7D6FEE2
:10313C0003463B77BB69013BBB61BB69002B0AD0E3
:10314C003B7F03F00103002B05D13A7F7B7F1340BB
:10315C00DBB2002BE9D080210D20FFF710FFBB69FB
:10316C00002B52D00620FFF7B9FE034603F01B03D9
:10317C00002B48D10023FB773A7FBB7F1340DBB297
:10318C0003F00103002B01D00123FB77FB7B0C2BFD
:10319C003BD10A20FFF7A2FE03463B770C20FFF73A
:1031AC009DFE034603F00703FB75FB7D002B08D047
:1031BC003B7F013BDA00FB7D13441A463B6B1A60E4
:1031CC0004E03B7FDB001A463B6B1A603B7F002B15
:1031DC0001D101233B773B7F102B01D910233B7787
:1031EC000023BB610AE07A68BB69D4180920FFF799
:1031FC0075FE03462370BB690133BB613B7FBA6923
:10320C009A42F0D301E00223FB77FB7F1846243768
:10321C00BD4690BD80B586B002AF786000237B734D
:10322C0000210D20FFF728FE7B6893221A707B6823
:10323C00013320221A7007F1080300937B680222E5
:10324C0079680C20FFF71DFF0346FB73FB7B002BFB
:10325C0018D10023BB7309E0BB7B7A6813441A783E
:10326C007B7B53407B73BB7B0133BB73BB7B032BDF
:10327C00F2D9BB7B7A6813441B787A7B9A4201D0D3
:10328C000223FB73FB7B18461037BD4680BD000044
:10329C0080B586B002AF0346FB71FB7923F00F03B8
:1032AC00FB73FB791B01BB73FB7B43F00C03DBB2A1
:1032BC003B72FB7B43F00803DBB27B72BB7B43F0BE
:1032CC000C03DBB2BB72BB7B43F00803DBB2FB72BB
:1032DC0007F108026423009304237E210348FDF7C1
:1032EC00EFFF00BF1037BD4680BD00BF8C00002033
:1032FC0080B586B002AF0346FB71FB7923F00F0358
:10330C00FB73FB791B01BB73FB7B43F00D03DBB23F
:10331C003B72FB7B43F00903DBB27B72BB7B43F05C
:10332C000D03DBB2BB72BB7B43F00903DBB2FB7258
:10333C0007F108026423009304237E210348FDF760
:10334C00BFFF00BF1037BD4680BD00BF8C00002002
:10335C0080B582B000AF0020FFF79AFF00237B609E
:10336C0005E02020FFF7C4FF7B6801337B607B689E
:10337C00632BF6DD00BF00BF0837BD4680BD80B5AE
:10338C0000AF3220FDF79AFB3020FFF781FF0520BC
:10339C00FDF794FB3020FFF77BFF0120FDF78EFB40
:1033AC003020FFF775FF0A20FDF788FB2020FFF780
:1033BC006FFF0A20FDF782FB2820FFF769FF012031
:1033CC00FDF77CFB0820FFF763FF0120FDF776FB80
:1033DC000120FFF75DFF0220FDF770FB0620FFF7D1
:1033EC0057FF0120FDF76AFB0C20FFF751FF00BFD0
:1033FC0080BD000080B584B000AF7860E123BB7362
:10340C00EF237B73F5233B73E223FB720023FB73E7
:10341C006BE07B685A1C7A601B78BB72FB7B002BC1
:10342C0059D0BB7A9F3B1D2B52D801A252F823F0E6
:10343C00D3340008DD340008DD340008DD34000826
:10344C00DD340008B5340008DD340008DD34000834
:10345C00DD340008DD340008DD340008DD340008FC
:10346C00DD340008DD340008DD340008DD340008EC
:10347C00DD340008DD340008DD340008DD340008DC
:10348C00DD340008DD340008DD340008BF340008EA
:10349C00DD340008DD340008DD340008DD340008BC
:1034AC00DD340008C9340008BB7B1846FFF720FF49
:1034BC000EE07B7B1846FFF71BFF09E03B7B1846B1
:1034CC00FFF716FF04E0FB7A1846FFF711FF00BF69
:1034DC000023FB7309E0BB7AC32B02D10123FB73DE
:1034EC0003E0BB7A1846FFF703FF7B681B78002BC1
:1034FC008FD100BF00BF1037BD4680BD80B582B0F4
:10350C0000AF78600B46FB701346BB70BA78FB7843
:10351C001146184600F01AF8FA78B9780A4813469A
:10352C009B0013449B0003440B441B7863F07F0304
:10353C00DBB21846FFF7ACFE7868FFF75BFF00BF05
:10354C000837BD4680BD00BFA040000880B584B0E0
:10355C0000AF03460A46FB711346BB71FA79B97981
:10356C00104813469B0013449B0003440B441B78E8
:10357C0063F07F03DBB21846FFF78AFE0023FB6083
:10358C0005E02020FFF7B4FEFB680133FB60BB793C
:10359C00C3F11403FA689A42F3DB00BF00BF103783
:1035AC00BD4680BDA04000080CB430B5184B0C1EB5
:1035BC001D689DB008DA8B234FF0FF302B601DB0D7
:1035CC00BDE8304002B070474FF40273ADF81430D0
:1035DC004FF000031B930CBF234604F1FF330493FD
:1035EC0007934FF6FF7302900690ADF816302846FD
:1035FC0021AB209A02A9019300F0B4F9431CBCBF83
:10360C008B232B60002CDAD00022029B1A70D6E799
:10361C000C0000200EB46FF0004110B500249DB0DA
:10362C001FAB02900690079104910948094953F881
:10363C00042B0591006802A901931B9400F092F9E8
:10364C00029B1C701DB0BDE8104003B0704700BF5A
:10365C000C0000200802FFFF03460244934200D1F5
:10366C00704703F8011BF9E7014B1868704700BF5E
:10367C000C00002070B500260C4D0D4C641BA410E2
:10368C00A64209D100F076FC00260A4D0A4C641BB8
:10369C00A410A64205D170BD55F8043B98470136DD
:1036AC00EEE755F8043B98470136F2E72441000851
:1036BC002441000824410008284100087047704745
:1036CC0038B50546002940D051F8043C0C1F002B9E
:1036DC00B8BFE41800F0DEF81C4A136833B9636015
:1036EC0014602846BDE8384000F0DAB8A34208D987
:1036FC00206821188B4201BF19685B68091821608A
:10370C00EDE71A465B680BB1A342FAD91168501861
:10371C00A0420BD120680144501883421160E0D1C3
:10372C0018685B68084410605360DAE702D90C2310
:10373C002B60D6E7206821188B4201BF19685B68A3
:10374C000918216063605460CBE738BDCC020020BF
:10375C0070B50F4E0C463168054611B900F0A8FB48
:10376C0030602146284600F0A3FB431C03D14FF0E8
:10377C00FF34204670BDC41C24F00304A042F8D0D2
:10378C00211A284600F094FB0130F2D1EFE700BF7C
:10379C00C80200202DE9F843CD1C25F0030508359F
:1037AC000C2D38BF0C25002D064601DBA94204D98F
:1037BC000C2333600020BDE8F883DFF8D48000F0E0
:1037CC0069F8D8F800301C4644BB29463046FFF750
:1037DC00BFFF431C044658D1D8F800402746002FA1
:1037EC0043D1002C4BD023683946304604EB0309F7
:1037FC0000F05EFB814542D1216830466D1A2946A6
:10380C00FFF7A6FF01303AD023682B442360D8F889
:10381C0000305A6862BBC8F800700FE02268521B77
:10382C0020D40B2A17D96119A342256018BF5960FF
:10383C00636808BFC8F8001062514B60304600F056
:10384C002FF804F10B00231D20F00700C21A1CBF37
:10385C001B1AA350AFE76268A3420CBFC8F8002044
:10386C005A60EBE723466468AEE73C467F68B6E7F0
:10387C001A465B68A342FBD100235360DEE70C239E
:10388C003046336000F00CF894E70560D6E700BFD3
:10389C00CC0200200148FFF711BF00BFC40200207A
:1038AC000148FFF70CBF00BFC40200202DE9F04710
:1038BC001F468E688246BE420C4690460B682DD839
:1038CC00B1F90C2012F4906F26D06569096905EBEB
:1038DC004505A3EB010905EBD5757B1C4B446D101D
:1038EC009D4238BF1D46530527D52946FFF752FF89
:1038FC00064660B34A46216900F0F8FAA38923F41E
:10390C00906343F08003A38126614E4426603E46BB
:10391C006561A5EB0905A560BE4200D93E4632465D
:10392C004146206800F0AAFA0020A3689B1BA36004
:10393C00236833442360BDE8F0872A4600F0E4FA9C
:10394C0006460028E0D150462169FFF7B9FE0C234A
:10395C00CAF80030A3894FF0FF3043F04003A38135
:10396C00E9E700002DE9F04F98468B8907461B06C6
:10397C000D4614469DB010D50B6973B94021FFF765
:10398C0009FF2860286130B90C233B604FF0FF30F1
:10399C001DB0BDE8F08F40236B61002309932023F9
:1039AC008DF8293030234FF00109CDF80C80DFF869
:1039BC0098818DF82A3023469A4613F8012B0AB1C8
:1039CC00252AF9D1BAEB040B0BD05B4622462946CB
:1039DC003846FFF76BFF013000F0A780099A5A4474
:1039EC0009929AF80030002B00F09F8000234FF0D2
:1039FC00FF32CDE905230AF1010A049307938DF8F0
:103A0C0053301A935446052214F8011B4E4800F00B
:103A1C005FFA049AD8B9D00644BF20238DF85330EE
:103A2C00110744BF2B238DF853309AF800302A2B02
:103A3C0015D0544600204FF00A0C079A214611F875
:103A4C00013B303B092B4BD9B0B1079214E0A0EBF2
:103A5C00080309FA03F31343A2460493D2E7039B2A
:103A6C00191D1B680391002BBBBF5B4242F0020285
:103A7C0007930793B8BF049223782E2B0AD163784F
:103A8C002A2B32D1039B02341A1D1B68039243EA82
:103A9C00E3730593DFF8B4A003225046217800F0BD
:103AAC0017FA38B14022049BA0EB0A008240134362
:103ABC000134049314F8011B062225488DF82810B4
:103ACC0000F006FA002836D0224B1BBB039B0733B1
:103ADC0023F0070308330393099B334409936AE7E4
:103AEC000C4601200CFB0232A8E700234FF00A0C15
:103AFC00194601340593204610F8012B303A092A57
:103B0C0003D9002BC6D00591C4E7044601230CFB56
:103B1C000121F0E703AB00932A4638460E4B04A96B
:103B2C00AFF30080421C0646D6D1AB895B063FF54D
:103B3C002DAF09982CE703AB00932A463846064B69
:103B4C0004A900F07DF8EDE7F0400008F64000080D
:103B5C00FA40000800000000B93800082DE9F047D1
:103B6C00164698468A680B6907469342B8BF1346B7
:103B7C00336091F843200C46DDF820900AB10133F4
:103B8C0033602368990642BF33680233336025687B
:103B9C0015F0060506D104F1190AE36832689B1A80
:103BAC00AB422BDC94F843302268003B18BF012356
:103BBC00920630D44146384604F14302C8470130DE
:103BCC0023D02368226903F00603042B14BF0025BD
:103BDC0033684FF0000608BFE56804F11A0408BF0B
:103BEC00ED1A54F8123C08BF25EAE5759342C4BFA0
:103BFC009B1AED18B5421AD1002008E00123524659
:103C0C0041463846C847013003D14FF0FF30BDE87C
:103C1C00F0870135C1E73020E11881F843005A1CC8
:103C2C0094F845102244023382F84310C2E7012372
:103C3C00224641463846C8470130E6D00136D9E71E
:103C4C002DE9FF470F7E9146782F80460C469A4609
:103C5C000C9E01F1430207D8622F0AD8002F00F006
:103C6C00D180582F00F0B88004F1420684F84270DD
:103C7C003AE0A7F16303152BF6D801A151F823F014
:103C8C00E53C0008F93C0008753C0008753C000850
:103C9C00753C0008753C0008F93C0008753C0008B0
:103CAC00753C0008753C0008753C0008F73D0008A1
:103CBC00233D0008B13D0008753C0008753C000828
:103CCC00193E0008753C0008233D0008753C0008AF
:103CDC00753C0008B93D000833681A1D1B6832603A
:103CEC0004F1420684F8423001239CE033682068DA
:103CFC00191D3160060601D51D6803E04506FBD58C
:103D0C00B3F90050002D03DA2D236D4284F84330B3
:103D1C000A23584811E021683368080653F8045BFD
:103D2C0002D4490648BFADB26F2F336014BF0A23CB
:103D3C0008235048002184F843106668002EA660C2
:103D4C0005DB21682E4321F0040121604BD016467F
:103D5C00B5FBF3F103FB1157C75D06F8017D2F4648
:103D6C00BB420D46F4D9082B0BD12368DF0708D5CD
:103D7C00236961689942DEBF302306F8013C06F1E5
:103D8C00FF36921B22614B4621464046CDF800A0DF
:103D9C0003AAFFF7E3FE01304AD14FF0FF3004B025
:103DAC00BDE8F087236843F020032360782732486E
:103DBC0084F84570236831681F0651F8045B02D4FF
:103DCC005F0648BFADB23160D90744BF43F0200352
:103DDC0023601DB11023ADE72648E9E7236823F0E3
:103DEC0020032360F6E71646BDE733682568181DE7
:103DFC00616930602E061B6801D5196002E0680607
:103E0C00FBD51980002316462361BCE733680021DB
:103E1C001A1D32601E686268304600F059F808B10D
:103E2C00801B606063682361002384F84330AAE739
:103E3C003246494640462369D0470130ADD023680D
:103E4C009B0713D4E068039B9842B8BF1846A6E7BB
:103E5C000123324649464046D04701309DD00135BA
:103E6C00E36803995B1AAB42F2DCEBE7002504F143
:103E7C001906F5E70141000812410008884210B507
:103E8C0001EB020402D98442234607D8431EA14207
:103E9C0008D011F8012B03F8012FF8E70146024472
:103EAC008A4200D110BD13F8014D02F8014DF7E71D
:103EBC0038B50023054D044608462B60FCF73AFD47
:103ECC00431C02D12B6803B1236038BDC002002013
:103EDC00034610B5C9B202449342184601D10020E2
:103EEC0003E0047801338C42F6D110BD0A449142B0
:103EFC0000F1FF3300D1704710B511F8014B91421E
:103F0C0003F8014FF9D110BD2DE9F04107461446D5
:103F1C000D4621B91146BDE8F041FFF73BBC2AB96B
:103F2C00FFF7CEFB25462846BDE8F08100F01AF8D5
:103F3C008442064602D8B4EB500FF4D821463846DA
:103F4C00FFF728FC804608B94546ECE7B442224608
:103F5C00294628BF3246FFF7C9FF29463846FFF7E6
:103F6C00AFFBF1E751F8043C181F002BBCBF0B58FA
:103F7C00C0187047F8B500BFF8BC08BC9E46704727
:0C3F8C00F8B500BFF8BC08BC9E467047AA
:103F980052756E6E696E67205243353232000000EA
:103FA80048656C6C6F20576F726C642100000000CC
:103FB8007665723A257800005243353232207265B0
:103FC80061647921000000005243353232204641B5
:103FD800494C21005665723A203078253032580015
:103FE8005665723A257800004E6F2063617264004E
:103FF800436F6D6D206572726F7200002530325804
:10400800253032582530325825303258000000000B
:1040180043617264205549443A0000005363616E5D
:1040280020616761696E2E2E2E000000546F6F208C
:104038006D616E79206572726F7273005379737453
:10404800656D2072657365742E2E2E00B26C3983EF
:104058000000000055E5DA18000000001F09CA75C5
:10406800000000002C887F3D0000000000000000D8
:104078000000000001020304060708090000000010
:104088000102030402030405060708090A0B0C0DC4
:104098000E0F1010010200000001020304050607BC
:1040A80008090A0B0C0D0E0F101112134041424360
:1040B8004445464748494A4B4C4D4E4F5051525340
:1040C8001415161718191A1B1C1D1E1F2021222330
:1040D800242526275455565758595A5B5C5D5E5F10
:1040E8006061626364656667232D302B2000686C0D
:1040F8004C00656667454647003031323334353603
:10410800373839414243444546003031323334353B
:0C41180036373839616263646566000068
:04412400310100085D
:044128000D0100087D
:10412C0000127A00100000000100000010000020B6
:10413C000000000088010020F0010020580200203F
:10414C000000000000000000000000000000000063
:10415C000000000000000000000000000000000053
:10416C000000000000000000000000000000000043
:0C417C0000000000000000000000000037
:04000005080009B92D
:00000001FF
